:020000040800F2
:1000000000500020716C000805190008071900084D
:10001000091900080B1900080D190008000000005C
:100020000000000000000000000000000F190008A0
:100030001119000800000000131900081519000824
:10004000B96C0008B96C0008B96C0008B96C0008FC
:10005000B96C0008B96C0008B96C0008B96C0008EC
:10006000B96C0008B96C0008B96C0008B96C0008DC
:10007000B96C0008B96C0008B96C00081D190008BB
:10008000B96C00082D190008B96C0008B96C00089B
:100090003D190008B96C0008B96C0008B96C00087B
:1000A000B96C0008B96C0008B96C0008B96C00089C
:1000B000B96C0008B96C0008B96C0008B96C00088C
:1000C000B96C0008B96C0008B96C0008B96C00087C
:1000D000B96C00084D1900085D190008B96C0008DA
:1000E000B96C0008B96C0008B96C00080000000089
:1000F0000000000000000000000000000000000000
:0C01000000000000000000005FF808F1A3
:10010C000348044B834202D0034B03B1184770479A
:10011C00E4010020E401002000000000054806492D
:10012C000B1AD90F01EBA301491002D0034B03B1F9
:10013C0018477047E4010020E40100200000000093
:10014C0010B5064C237843B9FFF7DAFF044B13B113
:10015C000448AFF300800123237010BDE40100209C
:10016C0000000000F86D000808B5044B1BB10449F1
:10017C000448AFF30080BDE80840CFE70000000062
:10018C00E8010020F86D00080B460146184600F007
:10019C0001B800BF10B5054C34B113460A460146F0
:1001AC00022000F0CFF910BD204610BD510500080B
:1001BC0070B50D4E0D4D761BB61006D0002455F8BB
:1001CC00043B01349847A642F9D1094E094D06F07B
:1001DC000DFE761BB61006D0002455F8043B0134F6
:1001EC009847A642F9D170BDF0760008F076000869
:1001FC00F8760008F0760008830730B548D0541E16
:10020C00002A3FD00346CAB201E0013C3AD303F8BE
:10021C00012B9D07F9D1032C2DD9CDB245EA05252B
:10022C000F2C45EA054536D9A4F1100222F00F0C2B
:10023C0003F1200EE6444FEA121C03F1100242E9CE
:10024C00045542E9025510327245F8D10CF1010205
:10025C0014F00C0F03EB021204F00F0C13D0ACF1E2
:10026C00040323F003030433134442F8045B934266
:10027C00FBD10CF003042CB1CAB21C4403F8012BC3
:10028C009C42FBD130BD64461346002CF4D1F9E7F7
:10029C0003461446BFE71A46A446E0E770B5064687
:1002AC000D46002830D0836963B384682C4B9C4284
:1002BC0034D02C4B9C423CD02B4B9C4208BFF46856
:1002CC00A3891B072ED5236963B3297839B932E08A
:1002DC0023685A1C2260197015F8011F59B3A368C2
:1002EC00013B002BA360F3DAA269934201DB0A29DC
:1002FC00EED12246304600F041F80130ECD14FF0FF
:10030C00FF3070BD00F05AFBB369B468002BCDD13F
:10031C00304600F053FB124B9C42CAD17468A3893F
:10032C001B07D0D42146304600F08AF80028CCD0E8
:10033C00E5E7B468C4E7A368013B002BA36008DAC7
:10034C0022460A21304600F019F80130D7D00A2095
:10035C0070BD0A2223681046591C21601A7070BDAA
:10036C00586E0008386E0008186E0008024B0146E3
:10037C001868FFF793BF00BF04000020F8B50646CD
:10038C000D46144608B1836943B3254B9C422AD0D1
:10039C00244B9C4229D0244B9C4208BFF468A26990
:1003AC00A389A2601A0722D5236903B32268616965
:1003BC00D31AEDB299422F4629DD0133A1680139D8
:1003CC00A160511C2160157062699A4216D0A389F4
:1003DC00DB0701D50A2D11D03846F8BD00F0EEFA36
:1003EC000F4B9C42D4D17468D9E7B468D7E7214647
:1003FC00304600F025F838B92369D7E72146304656
:10040C0000F07AF90028E7D04FF0FF37E4E72146F7
:10041C00304600F071F90028F6D101232268CDE7AF
:10042C00586E0008386E0008186E000803460A461D
:10043C00024908681946FFF7A1BF00BF040000205D
:10044C003C4B70B51D6806460C460DB1AB69E3B16B
:10045C00394B9C421FD0394B9C424DD0384B9C425F
:10046C0008BFEC68B4F90C3018079AB219D5216999
:10047C0011B312F001002FD000256069A560404235
:10048C00A06100292ED0002070BD284600F096FAFD
:10049C00294B9C42DFD16C68B4F90C3018079AB226
:1004AC00E5D4D1063ED5520728D4216943F0080380
:1004BC00A3819AB20029DCD102F42070B0F5007F40
:1004CC00D7D02146304600F0DDFAB4F90C30216962
:1004DC009AB212F00100CFD1950758BF6069A060A5
:1004EC000029D0D1120658BF0846CDD543F04003A1
:1004FC004FF0FF30A38170BDAC68B3E7616B51B1B5
:10050C0004F14402914204D0304600F049FBB4F9A6
:10051C000C30002262630022216923F02403C4E919
:10052C000012C3E7092243F0400332604FF0FF3062
:10053C00A38170BD04000020586E0008386E0008BE
:10054C00186E0008F0B5264C064625680F4683B099
:10055C0005B36C681F2C3FDCA6B1D5F8880048B3F6
:10056C00D0F800114FF0010C0CFA04FC00EB840ED7
:10057C004CEA0101022E40F82420C0F80011CEF8FC
:10058C00803010D00020631C02346B6045F824705E
:10059C0003B0F0BD134D144925600029D9D009686A
:1005AC00C5F88810D5E7D0F8043143EA0C03C0F83D
:1005BC000431E7E70D49CDE9002369B14FF48470AC
:1005CC00AFF3008040B1DDE9002300216C68C0E985
:1005DC004011C5F88800C5E74FF0FF30D8E700BFE1
:1005EC009403002008030020146E00080000000093
:1005FC00F8B58B890C46190707463BD46268002A6C
:10060C0055DDE66A002E50D000223D683A6013F4A6
:10061C00805250D101233846216AB047421C5CD02D
:10062C00A389E66A5B0705D56368C01A636B0BB1D7
:10063C00236CC01A0246216A00233846B047411C7D
:10064C003BD13B68002B38D01D2B01D0162B4BD146
:10065C0000232269C4E90023616B3D6029B304F1D6
:10066C004403994202D0384600F09AFA0023184607
:10067C006363F8BD2669C6B19A0718BF00232568C5
:10068C0008BF63692660AD1BA3600CE02B463246A5
:10069C00D4F828C03846216AE047B0F1000CA5EB2D
:1006AC000C05664412DD002DF0DC0020F8BD226C38
:1006BC00002AA6DCF9E7606DB4E7002223696260CA
:1006CC002360A389DB04C7D56065C5E7A3894FF018
:1006DC00FF3043F04003A381F8BD3B68002B9FD053
:1006EC001D2B06D0162B04D0A38943F04003A38105
:1006FC00F8BD00203D60F8BD38B50B69BBB10C46A8
:10070C00054608B18369B3B10D4B9C4211D00D4B1A
:10071C009C4213D00C4B9C4208BFEC68B4F90C30D3
:10072C002BB121462846BDE83840FFF761BF0020B9
:10073C0038BD6C68F2E700F041F9E5E7AC68EDE72D
:10074C00586E0008386E0008186E000838B540B3B3
:10075C0003690446E3B1174B1D680DB1AB69CBB10E
:10076C00154B9C420FD0154B9C4221D0144B9C42F4
:10077C0008BFEC68B4F90C3053B121462846BDE8EB
:10078C003840FFF735BF6C68B4F90C30002BF4D14E
:10079C00002038BD284600F011F9074B9C42E2D1ED
:1007AC00F1E7084B08491868BDE8384000F046B935
:1007BC00AC68DFE704000020586E0008386E0008B3
:1007CC00186E0008106E000805070008002070471E
:1007DC00014900F033B900BF05070008002070473D
:1007EC00682270B54D1E02FB05F50E4605F174012D
:1007FC0000F03CFA044640B100210C30C4E9016021
:10080C0005F168022160FFF7F7FC204670BD00BFC0
:10081C00274B2DE9F0411E680746B36953B34FF0DF
:10082C0004084836D6E90134013B04D51EE05A1CB5
:10083C0004F168041AD0B4F90C50013B002DF6D128
:10084C001C4B08222946C4E90055C4E90253C4E9EB
:10085C0004556566A56104F15C00FFF7CDFCC4E9A5
:10086C000D55C4E912552046BDE8F08135682DB10F
:10087C002E46D7E7304600F01FF8D0E74FF4D6717C
:10088C00384600F0F3F9044668B105602946054680
:10089C00C0F804800C304FF4D072A060FFF7ACFCB1
:1008AC0034602E46BEE70C2330603B60DBE700BFB4
:1008BC00106E00080100FFFF0023334A2DE9F047BA
:1008CC001268C0E912339042036508BF01232F4917
:1008DC0008BF836181620546FFF79AFF03462846ED
:1008EC006B60FFF795FFA86028460024FFF790FF88
:1008FC0004236E68DFF898A0DFF89890DFF89880F2
:10090C00264FE8600822F3602146C6E90044C6E998
:10091C0004447466B460B46106F15C00FFF76CFCCF
:10092C001F4BC6E9086AC6E90A983763AE68082205
:10093C00F3602146C6E90044C6E904447466B46019
:10094C00B46106F15C00FFF757FC164BC6E9086A68
:10095C00C6E90A983763EE682146F3600822C6E9B7
:10096C000044C6E904447466B460B46106F15C00EA
:10097C00FFF742FC0123C6E9086AC6E90B87C6F8F3
:10098C002890AB61BDE8F087106E0008DD07000809
:10099C00550D00087D0D0008BD0D0008DD0D00088B
:1009AC000900010012000200024B0349186800F014
:1009BC0045B800BF106E000805070008836903B92D
:1009CC007AE77047704700BF704700BF704700BFA1
:1009DC00704700BF024B0349186800F00FB800BF06
:1009EC0004000020D9070008024B0349186800F0E6
:1009FC0005B800BF04000020E90700082DE9F0410C
:100A0C000026884600F14807D7E90154013D0ED471
:100A1C00A389013D012B06D9B4F90E30013302D064
:100A2C002046C04706436B1C04F16804F0D13F68B4
:100A3C00002FE9D13046BDE8F08100BF2DE9F84325
:100A4C004FF000090746884600F14806D6E90154E4
:100A5C00013D10D4A389013D012B08D9B4F90E3006
:100A6C00013304D021463846C04749EA00096B1CC3
:100A7C0004F16804EED13668002EE7D14846BDE893
:100A8C00F88300BFF0B58B890C46990797B007D552
:100A9C00012204F14703C4E90432236017B0F0BD0E
:100AAC00B4F90E10054600292DDB6A4600F0BCF99E
:100ABC00002827DB019E4FF4806706F47046A6F5EC
:100ACC000056B6FA86F639462846760900F0CEF876
:100ADC0030B3A3891A4A43F08003AA62C4E904071D
:100AEC00A3812060002ED9D02846B4F90E1000F056
:100AFC00AFF90028D2D0A38923F0030343F00103FC
:100B0C00A381CBE7A38913F0800F14BF40274FF4C8
:100B1C00806728463946002600F0A8F80028D8D16E
:100B2C00B4F90C309A05B9D4012123F0030304F174
:100B3C00470243F00203C4E90421A3812260ADE71C
:100B4C00DD07000870B50C46B1F90E1016460029E9
:100B5C001D4696B013DB6A4600F066F900280EDBE2
:100B6C0001994FF4806301F47041A1F50051B1FA81
:100B7C0081F1002049092960336016B070BD002254
:100B8C00B4F90C302A601B0604D5402300203360D6
:100B9C0016B070BD4FF480630020336016B070BD8A
:100BAC00002952D038B551F8043C0C1F002BB8BFAB
:100BBC00E418054600F074F92B4A1368002B45D055
:100BCC00A3420CD921686018834228D06360284660
:100BDC001460BDE8384000F065B9A3420FD81A463E
:100BEC005B68002BF9D11168501884421DD034D3A6
:100BFC00636054602846BDE8384000F053B9116872
:100C0C005018A04215D028D8216860188342EFD123
:100C1C0018685B680144C4E900135460EAE718687B
:100C2C005B680144C4E90013D1E7236819441160DF
:100C3C00E0E720680144501883421160DAD1D3E90F
:100C4C0000030144C2E90013D4E7704728466360EF
:100C5C001460BDE8384000F025B90C2328462B6001
:100C6C00BDE8384000F01EB998030020F8B5CD1C43
:100C7C0025F0030508350C2D38BF0C25002D064634
:100C8C0023DBA94221D8264F00F00AF93A6822B397
:100C9C00144603E063682246FBB11C4623685B1BC9
:100CAC00F8D40B2B15D8636894420CBF3B6053608F
:100CBC00304600F0F7F804F10B00231D20F007007C
:100CCC00C21A01D01B1AA350F8BD0C2300203360AC
:100CDC00F8BD23601C442560EAE77968D1B1294648
:100CEC00304600F01FF8431C01460CD0C41C24F005
:100CFC000304A04205D03046611A00F013F801300D
:100D0C0001D02560D4E70C233046336000F0CAF8DC
:100D1C000020F8BD304600F005F87860DFE700BF32
:100D2C0098030020002238B5064D044608462A6078
:100D3C0000F0F8F8431C00D038BD2B68002BFBD01A
:100D4C00236038BDA003002010B50C46B1F90E107D
:100D5C0000F0AAF8002803DB636D0344636510BD43
:100D6C00A38923F48053A38110BD00BF00207047DA
:100D7C002DE9F0410C46B1F90C101F46CB05054688
:100D8C0016460BD421F48051A1813B4632462846AD
:100D9C00B4F90E10BDE8F04100F01EB8B4F90E1015
:100DAC000223002200F066F8B4F90C10EAE700BF49
:100DBC0010B50C46B1F90E1000F05CF8A389421C7A
:100DCC000EBF23F4805343F480536065A38110BDA0
:100DDC00B1F90E1000F016B838B50C4611460022C9
:100DEC008446074D20462A601A46644605F084FB6B
:100DFC00431C00D038BD2B68002BFBD0236038BDC2
:100E0C00A0030020002238B5064D044608462A608F
:100E1C0000F060F8431C00D038BD2B68002BFBD0D1
:100E2C00236038BDA003002070B50026074D044692
:100E3C00084611462E6000F055F8431C00D070BDDA
:100E4C002B68002BFBD0236070BD00BFA0030020DB
:100E5C00002238B5064D044608462A6000F04AF8D0
:100E6C00431C00D038BD2B68002BFBD0236038BD51
:100E7C00A003002038B50C46114600228446074DCD
:100E8C0020462A601A46644600F03CF8431C00D009
:100E9C0038BD2B68002BFBD0236038BDA00300208D
:100EAC00704700BF704700BF38B50C461146002292
:100EBC008446074D20462A601A46644600F02AF8FC
:100ECC00431C00D038BD2B68002BFBD0236038BDF1
:100EDC00A00300205822024B4FF0FF301A607047DD
:100EEC00A00300205822024B4FF0FF301A607047CD
:100EFC00A00300205822024B00201A60704700BF4C
:100F0C00A00300205822024B4FF0FF301A607047AC
:100F1C00A00300205822024B4FF0FF301A6070479C
:100F2C00A0030020044A05491368002B08BF0B4698
:100F3C001844106018467047A4030020381900208C
:100F4C0080F0004002E000BF81F0004142001FBF72
:100F5C005FEA410392EA030F7FEA226C7FEA236C7B
:100F6C006AD04FEA1262D2EB1363C1BFD218414070
:100F7C0048404140B8BF5B42192B88BF704710F006
:100F8C00004F40F4000020F07F4018BF404211F0A9
:100F9C00004F41F4000121F07F4118BF494292EA11
:100FAC00030F3FD0A2F1010241FA03FC10EB0C003D
:100FBC00C3F1200301FA03F100F0004302D54942CA
:100FCC0060EB4000B0F5000F13D3B0F1807F06D377
:100FDC0040084FEA310102F10102FE2A51D2B1F16F
:100FEC00004F40EBC25008BF20F0010040EA030064
:100FFC007047490040EB0000013A28BFB0F5000FE4
:10100C00EDD2B0FA80FCACF1080CB2EB0C0200FA99
:10101C000CF0AABF00EBC25052421843BCBFD040E8
:10102C001843704792F0000F81F4000106BF80F462
:10103C0000000132013BB5E74FEA41037FEA226C25
:10104C0018BF7FEA236C21D092EA030F04D092F0F0
:10105C00000F08BF0846704790EA010F1CBF002024
:10106C00704712F07F4F04D1400028BF40F0004081
:10107C00704712F100723CBF00F50000704700F0A1
:10108C00004343F0FE4040F4000070477FEA2262C8
:10109C0016BF08467FEA23630146420206BF5FEA99
:1010AC00412390EA010F40F4800070474FF0000399
:1010BC0004E000BF10F0004348BF40425FEA000C60
:1010CC0008BF704743F0964301464FF000001CE008
:1010DC0050EA010208BF70474FF000030AE000BF5E
:1010EC0050EA010208BF704711F0004302D540429C
:1010FC0061EB41015FEA010C02BF8446014600200E
:10110C0043F0B64308BFA3F18053A3F50003BCFA28
:10111C008CF2083AA3EBC25310DB01FA02FC6344D5
:10112C0000FA02FCC2F12002BCF1004F20FA02F2DC
:10113C0043EB020008BF20F00100704702F12002CF
:10114C0001FA02FCC2F1200250EA4C0021FA02F230
:10115C0043EB020008BF20EADC7070474FF0FF0C35
:10116C001CEAD0521EBF1CEAD15392EA0C0F93EA30
:10117C000C0F6FD01A4480EA010C400218BF5FEAD2
:10118C0041211ED04FF0006343EA501043EA511145
:10119C00A0FB01310CF00040B1F5000F3EBF49003F
:1011AC0041EAD3715B0040EA010062F17F02FD2A43
:1011BC001DD8B3F1004F40EBC25008BF20F0010026
:1011CC00704790F0000F0CF0004C08BF49024CEA3D
:1011DC00502040EA51207F3AC2BFD2F1FF0340EACF
:1011EC00C250704740F400004FF00003013A5DDC40
:1011FC0012F1190FDCBF00F000407047C2F1000281
:10120C00410021FA02F1C2F1200200FA02FC5FEA6D
:10121C00310040F1000053EA4C0308BF20EADC70B7
:10122C00704792F0000F00F0004C02BF400010F429
:10123C00000F013AF9D040EA0C0093F0000F01F0D6
:10124C00004C02BF490011F4000F013BF9D041EAF8
:10125C000C018FE70CEAD15392EA0C0F18BF93EAFA
:10126C000C0F0AD030F0004C18BF31F0004CD8D124
:10127C0080EA010000F00040704790F0000F17BFAB
:10128C0090F0004F084691F0000F91F0004F14D0F1
:10129C0092EA0C0F01D142020FD193EA0C0F03D149
:1012AC004B0218BF084608D180EA010000F000404C
:1012BC0040F0FE4040F40000704740F0FE4040F427
:1012CC00400070474FF0FF0C1CEAD0521EBF1CEAC6
:1012DC00D15392EA0C0F93EA0C0F69D0A2EB0302E4
:1012EC0080EA010C49024FEA402037D04FF080537E
:1012FC0043EA111143EA10130CF000408B4238BF43
:10130C005B0042F17D024FF4000C8B4224BF5B1A50
:10131C0040EA0C00B3EB510F24BFA3EB510340EA9E
:10132C005C00B3EB910F24BFA3EB910340EA9C004C
:10133C00B3EBD10F24BFA3EBD10340EADC001B01BC
:10134C0018BF5FEA1C1CE0D1FD2A3FF650AF8B4260
:10135C0040EBC25008BF20F0010070470CF0004C6D
:10136C004CEA50207F32C2BFD2F1FF0340EAC25098
:10137C00704740F400004FF00003013A37E792F059
:10138C00000F00F0004C02BF400010F4000F013AB7
:10139C00F9D040EA0C0093F0000F01F0004C02BFB2
:1013AC00490011F4000F013BF9D041EA0C0195E71B
:1013BC000CEAD15392EA0C0F08D142027FF47DAFB4
:1013CC0093EA0C0F7FF470AF084676E793EA0C0FA4
:1013DC0004D14B023FF44CAF08466EE730F0004CA2
:1013EC0018BF31F0004CCAD130F000427FF45CAF32
:1013FC0031F000437FF43CAF5FE700BF4FF0FF3CA0
:10140C0006E000BF4FF0010C02E000BF4FF0010CF2
:10141C004DF804CD4FEA40024FEA41037FEA226CBB
:10142C0018BF7FEA236C11D001B052EA530C18BFDD
:10143C0090EA010F58BFB2EB030088BFC81738BF42
:10144C006FEAE17018BF40F0010070477FEA226C30
:10145C0002D15FEA402C05D17FEA236CE4D15FEA2C
:10146C00412CE1D05DF8040B704700BF8446084660
:10147C006146FFE70FB5FFF7C9FF002848BF10F121
:10148C00000F0FBD4DF808EDFFF7F4FF0CBF012066
:10149C0000205DF808FB00BF4DF808EDFFF7EAFFF0
:1014AC0034BF012000205DF808FB00BF4DF808EDAB
:1014BC00FFF7E0FF94BF012000205DF808FB00BFA0
:1014CC004DF808EDFFF7D2FF94BF012000205DF826
:1014DC0008FB00BF4DF808EDFFF7C8FF34BF012033
:1014EC0000205DF808FB00BF4FEA4002B2F1FE4F4E
:1014FC000FD34FF09E03B3EB12620DD94FEA0023CA
:10150C0043F0004310F0004F23FA02F018BF4042A2
:10151C0070474FF00000704712F1610F01D1420289
:10152C0005D110F0004008BF6FF0004070474FF03D
:10153C000000704742000ED2B2F1FE4F0BD34FF0B9
:10154C009E03B3EB126209D44FEA002343F000432D
:10155C0023FA02F070474FF00000704712F1610F50
:10156C0001D1420202D14FF0FF3070474FF0000022
:10157C00704700BF72B6FEE700B595B02822002177
:10158C000DEB0200FEF738FE00230593069307933C
:10159C0008930993019302930393049301220A92F3
:1015AC004FF480330B930E920222119212934FF44C
:1015BC00E01313930AA800F0A9FFC0B90F230593F9
:1015CC0002210691002307934FF48062089209933D
:1015DC0005A801F0CDF960B9102301930023049301
:1015EC0001A801F0A1FA30B915B05DF804FBFFF7C2
:1015FC00C1FFFFF7BFFFFFF7BDFF08B500F04CFFC1
:10160C00FFF7BAFF00F012F800F06CF800F08CF85D
:10161C0000F0A4F801F03CFE01F06EFE01F09EFE1D
:10162C0001F03AFF05F0B6FAFEE700002DE9F041B3
:10163C0088B000240494059406940794264B9A6968
:10164C0042F010029A619A6902F010020092009A1C
:10165C009A6942F020029A619A6902F02002019282
:10166C00019A9A6942F004029A619A6902F00402A2
:10167C000292029A9A6942F008029A619B6903F0FD
:10168C0008030393039BDFF8548022464FF4005168
:10169C00404601F0E7FB124D22464FF4E04128464C
:1016AC0001F0E0FB4FF400530493012705970694D7
:1016BC000226079604A9404601F0C2FA4FF4E04313
:1016CC00049305970694079604A9284601F0B8FAE6
:1016DC0008B0BDE8F08100BF0010024000100140CE
:1016EC00000C014000B583B00E4B5A6942F0010268
:1016FC005A615B6903F001030193019B00221146BF
:10170C000F2001F069FD0F2001F09EFD0022114613
:10171C00112001F061FD112001F096FD03B05DF880
:10172C0004FB00BF0010024008B50A480A4B0360D6
:10173C004FF4E133436000238360C36003610422F0
:10174C0042618361C36100F027FB00B908BDFFF75C
:10175C0011FFFBE7300400200038014008B50A48AF
:10176C000A4B03604FF4E133436000238360C36092
:10177C000361082242618361C36100F00DFB00B973
:10178C0008BDFFF7F7FEFBE778040020004400409B
:10179C00F0B589B004460023049305930693079390
:1017AC0003684B4A934204D04A4A93424BD009B047
:1017BC00F0BD494B9A6942F480429A619A6902F4ED
:1017CC0080420092009A9A6942F008029A619B69E1
:1017DC0003F008030193019B402304930223059318
:1017EC00032307933D4F04A9384601F029FA8026BC
:1017FC00049600250595069504A9384601F020FAB3
:10180C00374A536843F0E06343F0040353603548B0
:10181C00354B036045608560C66005614561856137
:10182C00C56101F045FB58B92E4BE3635C620022A5
:10183C001146252001F0D0FC252001F005FDB6E76E
:10184C00FFF798FEF0E7244BDA6942F40032DA61D4
:10185C00DA6902F400320292029A9A6942F00402A6
:10186C009A619B6903F004030393039B0423049381
:10187C0002230593032307931C4E04A9304601F061
:10188C00DFF90823049300250595069504A9304635
:10189C0001F0D6F91648174B03601023436085609E
:1018AC008023C360056145618561C56101F000FB62
:1018BC0058B90F4BA3635C6200221146262001F03D
:1018CC008BFC262001F0C0FC71E7FFF753FEF0E71C
:1018DC00003801400044004000100240000C014060
:1018EC0000000140A80300205800024000080140FD
:1018FC00EC03002080000240FEE7FEE7FEE7FEE777
:10190C00FEE770477047704708B500F0D7FD08BD7B
:10191C0008B5024801F0ACFB08BD00BFA8030020CD
:10192C0008B5024801F0A4FB08BD00BFEC03002081
:10193C0008B5024802F0C0FD08BD00BF60120020CF
:10194C0008B5024800F07CFB08BD00BF3004002045
:10195C0008B5024800F074FB08BD00BF78040020F5
:10196C0082B00E4B9A6942F001029A619A6902F0B8
:10197C0001020092009ADA6942F08052DA61DB6966
:10198C0003F080530193019B054A536823F0E063F5
:10199C0043F00073536002B0704700BF0010024068
:1019AC000000014003681B4A90420AD0B0F1804FFE
:1019BC0007D0A2F59432904203D002F58062904297
:1019CC0003D123F070034A681343124A90420AD0A1
:1019DC00B0F1804F07D0A2F59432904203D002F5BB
:1019EC008062904203D123F44073CA68134323F0FE
:1019FC0080034A69134303608B68C3620B6883627C
:101A0C00044B984202D00123436170470B69036376
:101A1C00F9E700BF002C0140002857D070B50D46E7
:101A2C00044690F83D30002B4BD0022384F83D3017
:101A3C002268936823F4804323F0070393602146C4
:101A4C0051F8040BFFF7AEFF21688A688B690E6AA8
:101A5C002868104323F4407C2CF0030CAA68AB6973
:101A6C0042EA032343EA0C0323F47C4323F0FC03F4
:101A7C00EA69D5F80CC04CEA022C4CEA030C2A6A31
:101A8C0013032A6943EA021343EA0C0326F02206E5
:101A9C006A686D6942EA05123243886021688B617D
:101AAC0023681A62012384F8463084F83E3084F8A7
:101ABC003F3084F8423084F8433084F83D300020C5
:101ACC0070BD80F83C3001F07BFCAEE70120704724
:101ADC0001F01F01012303FA01FC036A23EA0C0342
:101AEC000362036A02FA01F10B430362704738B5D3
:101AFC00044690F83E00C0B294F83F3094F842206F
:101B0C00D2B294F843C00D46B1B9012849D1012A8B
:101B1C0048D1022384F83E3084F842307DB3042D42
:101B2C0039D0012200212068FFF7D2FF01220421C5
:101B3C002068FFF7CDFF27E0DBB25FFA8CFC0429AD
:101B4C0012D0012833D1012B2CD1012A31D1BCF177
:101B5C00010F30D1022384F83E3084F83F3084F8F2
:101B6C00423084F84330D9E7012B1CD1BCF1010F72
:101B7C001BD1022384F83F3084F84330CEE7012296
:101B8C0000212068FFF7A4FF2268136843F00103CB
:101B9C001360002006E0012204212068FFF798FF63
:101BAC00F2E7012038BD0120FCE71846FAE70120D6
:101BBC00F8E71846F6E71046F4E7000090F83C30DA
:101BCC00012B2CD010B4012380F83C30022380F878
:101BDC003D3003685A689C6822F0700C0A6842EA2F
:101BEC000C025A6003680F4A93420AD0B3F1804F3B
:101BFC0007D0A2F59432934203D002F5806293424F
:101C0C0004D124F080044A6814439C60012380F8BA
:101C1C003D30002380F83C30184610BC7047022041
:101C2C00704700BF002C0140026802F10C0353E81E
:101C3C00003F23F0C0030C3242E800310029F3D1FD
:101C4C00202380F841307047026802F10C0353E8FE
:101C5C00003F23F490730C3242E800310029F3D199
:101C6C00026802F1140353E8003F23F0010314321D
:101C7C0042E800310029F3D1036B012B05D020235E
:101C8C0080F84230002303637047026802F10C03B2
:101C9C0053E8003F23F010030C3242E800310029D6
:101CAC00F3D1ECE790F84130DBB2212B01D00220CC
:101CBC0070478368B3F5805F17D0036A5A1C0262C1
:101CCC001A7803685A60C38C9BB2013B9BB2C384E5
:101CDC004BB90268D36823F08003D3600268D368E1
:101CEC0043F04003D360002070470369002BE4D11C
:101CFC00036A1B880268C3F308035360036A023348
:101D0C000362E0E710B504460268136923F44053FC
:101D1C00C1680B43136183680269134342691A4318
:101D2C000168CB6823F4B05323F00C031343CB604E
:101D3C000268536923F4407381690B435361026851
:101D4C00134B9A4220D000F0CFFE024602EB8202E7
:101D5C0002EB820263689B00B2FBF3F20D48A0FB1E
:101D6C0002314909642303FB11231B013233A0FB0D
:101D7C0003235B0903F0F00202EB011203F00F03E3
:101D8C00216813448B6010BD00F0BEFE0246DDE7F7
:101D9C00003801401F85EB5160B310B5044690F834
:101DAC00413013B3242384F841302268D36823F4E0
:101DBC000053D3602046FFF7A5FF2268136923F474
:101DCC00904313612268536923F02A0353612268FC
:101DDC00D36843F40053D36000206064202384F85C
:101DEC00413084F84230606310BD80F84030FFF71A
:101DFC00CFFCD7E70120704738B590F84130DBB203
:101E0C00202B30D1044600292FD00AB9012038BD2F
:101E1C0001628284C28400234364212084F841003F
:101E2C00A06B134D8562A06B124DC562A06B124D59
:101E3C000563A06B436320681346021DA06B01F081
:101E4C006DF823686FF040021A60226802F11403E7
:101E5C0053E8003F43F08003143242E8003100297C
:101E6C00F3D10020D3E70220D1E70120CFE700BF58
:101E7C00891E0008F11E0008FD1E000808B5034667
:101E8C00406A1B681B6813F0200F1AD10023C3840F
:101E9C00026802F1140353E8003F23F0800314326C
:101EAC0042E800310029F3D1026802F10C0353E837
:101EBC00003F43F040030C3242E800310029F3D1DB
:101ECC0008BD04F07BFCFBE708B50168CA6822F08A
:101EDC004002CA60202280F8412004F06FFC0020F0
:101EEC0008BD704708B5406AFFF7FBFF08BD704797
:101EFC0010B5446A23685A6994F84130DBB2212B3F
:101F0C0010D023685A6902F0400294F84230DBB2D8
:101F1C00222B11D0636C43F010036364204604F051
:101F2C001FFC10BD02F08002002AEAD00023E384DB
:101F3C002046FFF779FEE4E7002AEBD00023E38587
:101F4C002046FFF781FEE5E708B5406A0023C3850C
:101F5C00C38404F005FC08BD704790F84230DBB236
:101F6C00222B69D18368B3F5805F4FD0826AB3F5B9
:101F7C00805F04D0002B56D10369002B53D103682A
:101F8C005B681370836A01338362C38D9BB2013B20
:101F9C009BB2C385002B51D100B583B00268D368C6
:101FAC0023F02003D3600268D36823F48073D360DA
:101FBC000268536923F001035361202380F84230F7
:101FCC0000234363036B012B33D1002303630268AB
:101FDC0002F10C0353E8003F23F010030C3242E8EB
:101FEC0000310029F3D103681A6812F0100F06D0E3
:101FFC00002201921A6801925B680193019B818D0A
:10200C00FFF7AAFF002003B05DF804FB0269002A69
:10201C00ACD1826A03685B68C3F308031380836ADC
:10202C0002338362B1E703685B6803F07F031370CC
:10203C00A8E704F007FBE5E7022070470020704793
:10204C0030B583B0044602681368D068516913F048
:10205C000F0505D113F0200F02D010F0200F19D16D
:10206C002DB111F0010119D110F4907F16D1216B13
:10207C0001297DD013F0800F03D010F0800F40F0B9
:10208C00188113F0400F03D010F0400F40F0158171
:10209C0003B030BD2046FFF760FFF9E713F0010FE6
:1020AC0006D010F4807F03D0626C42F001026264AF
:1020BC0013F0040F04D019B1626C42F00202626496
:1020CC0013F0020F04D019B1626C42F00402626486
:1020DC0013F0080F07D010F0200F00D119B1626C6B
:1020EC0042F008026264626C002AD1D013F0200F17
:1020FC0002D010F0200F29D123685B6903F0400354
:10210C00626C12F0080F00D163B32046FFF79CFD00
:10211C0023685B6913F0400F20D0226802F114038E
:10212C0053E8003F23F04003143242E80031002909
:10213C00F3D1E36B73B1634A5A63E06B00F04CFF6D
:10214C000028A5D0E06B436B9847A1E72046FFF72A
:10215C0004FFD1E7204604F003FB99E7204604F086
:10216C00FFFA95E7204604F0FBFA002363648FE73F
:10217C0013F0100F3FF47EAF10F0100F3FF47AAF56
:10218C00002301931368019353680193019B5369D6
:10219C0013F0400F51D0E26B13685B689BB2002BBD
:1021AC003FF476AFA18D99427FF672AFE3859369C8
:1021BC00202B37D0226802F10C0353E8003F23F4A4
:1021CC0080730C3242E800310029F3D1226802F10D
:1021DC00140353E8003F23F00103143242E80031AA
:1021EC000029F3D1226802F1140353E8003F23F0D5
:1021FC004003143242E800310029F3D1202384F843
:10220C00423000232363226802F10C0353E8003FA1
:10221C0023F010030C3242E800310029F3D1E06BBB
:10222C0000F0B7FE02236363A18DE38D9BB2C91A44
:10223C0089B22046FFF790FE2AE7A18DE38D9BB271
:10224C00C91A89B2E38D9BB2002B3FF421AF002950
:10225C003FF41EAF226802F10C0353E8003F23F455
:10226C0090730C3242E800300028F3D1226802F15E
:10227C00140353E8003F23F00103143242E800300A
:10228C000028F3D1202384F84230002323632268F2
:10229C0002F10C0353E8003F23F010030C3242E828
:1022AC0000300028F3D1022363632046FFF754FE6D
:1022BC00EEE62046FFF7F6FCEAE62046FFF704FEC2
:1022CC00E6E600BF551F000808B5406A01234363CA
:1022DC00036B012B02D0FFF70AFE08BD818D490864
:1022EC00FFF73AFEF9E708B50346406A1B681B681E
:1022FC0013F0200F2BD10023C385026802F10C03CD
:10230C0053E8003F23F480730C3242E8003100297B
:10231C00F3D1026802F1140353E8003F23F00103E8
:10232C00143242E800310029F3D1026802F114039F
:10233C0053E8003F23F04003143242E800310029F7
:10234C00F3D1202380F84230036B012B07D00023FC
:10235C004363036B012B0FD004F074F908BD0268C2
:10236C0002F10C0353E8003F23F010030C3242E857
:10237C0000310029F3D1EAE7818DFFF7EDFDEDE7A0
:10238C0030B583B0044613468162828500254564CE
:10239C00222280F84220C26B1F489062E26B1F48D9
:1023AC00D062E26B1E481063E26B556320680A46EC
:1023BC00011DE06B00F0B2FD019523681A680192D3
:1023CC005B680193019B23695BB1226802F10C03EA
:1023DC0053E8003F43F480730C3242E8003100298B
:1023EC00F3D1226802F1140353E8003F43F00103D8
:1023FC00143242E800310029F3D1226802F11403AF
:10240C0053E8003F43F04003143242E80031002906
:10241C00F3D1002003B030BDF3220008D522000810
:10242C00FD1E000808B590F84230DBB2202B08D115
:10243C0049B10AB9012008BD00230363FFF7A0FFCF
:10244C00F9E70220F7E70120F5E7000010B5044694
:10245C000E4B18784FF47A73B3FBF0F30C4A1068F8
:10246C00B0FBF3F000F0FEFE68B90F2C01D901208F
:10247C000AE0002221464FF0FF3000F0ADFE054B84
:10248C001C60002000E0012010BD00BF680000208F
:10249C00700000206C00002008B5074A136843F058
:1024AC0010031360032000F085FE0F20FFF7CEFF12
:1024BC00FFF756FA002008BD00200240034A1168BD
:1024CC00034B1B780B441360704700BFC004002003
:1024DC0068000020014B1868704700BFC004002042
:1024EC0082B0084B1B68084AA2FB03235B0A00FB63
:1024FC0003F3019300BF019B5A1E0192002BF9D1EB
:10250C0002B0704770000020D34D6210002800F01C
:10251C00F18170B582B00446036813F0010F2CD022
:10252C00994B5B6803F00C03042B1DD0964B5B6836
:10253C0003F00C03082B12D06368B3F5803F41D035
:10254C00002B55D103F1804303F504331A6822F4B0
:10255C0080321A601A6822F480221A6037E08A4BA3
:10256C005B6813F4803FE7D0874B1B6813F4003F84
:10257C0003D06368002B00F0BF81236813F0020FB7
:10258C0075D0814B5B6813F00C0F5FD07E4B5B6892
:10259C0003F00C03082B54D02369002B00F08A8025
:1025AC007A4B01221A60FFF795FF0546764B1B68A4
:1025BC0013F0020F75D1FFF78DFF401B0228F5D9E0
:1025CC0003209EE1704A136843F480331360636800
:1025DC0043B3FFF77FFF05466B4B1B6813F4003FBB
:1025EC00CBD1FFF777FF401B6428F5D9032088E196
:1025FC00B3F5A02F09D0644B1A6822F480321A600C
:10260C001A6822F480221A60E1E703F18043A3F5F3
:10261C003C331A6842F480221A601A6842F4803201
:10262C001A60D4E7FFF756FF0546574B1B6813F4A7
:10263C00003FA2D0FFF74EFF401B6428F5D90320C2
:10264C005FE1514B5B6813F4803FA5D14E4B1B6887
:10265C0013F0020F03D02369012B40F04F814A4A3B
:10266C00136823F0F803616943EAC103136023681C
:10267C0013F0080F33D0A369002B5CD0434B01221D
:10268C00C3F88024FFF726FF05463F4B5B6A13F027
:10269C00020F21D1FFF71EFF401B0228F5D90320A2
:1026AC002FE1394A136823F0F803616943EAC10347
:1026BC001360DCE7354B00221A60FFF70BFF054671
:1026CC00314B1B6813F0020FD1D0FFF703FF401BF7
:1026DC000228F5D9032014E10120FFF701FF23683C
:1026EC0013F0040F00F09680274BDB6913F0805F2A
:1026FC0034D1254BDA6942F08052DA61DB6903F0A0
:10270C0080530193019B0125214B1B6813F4807F9F
:10271C0026D0E368012B3DD0002B53D103F180432D
:10272C0003F504331A6A22F001021A621A6A22F0C3
:10273C0004021A6233E0154B0022C3F88024FFF721
:10274C00C9FE0546104B5B6A13F0020FC7D0FFF7AA
:10275C00C1FE401B0228F5D90320D2E00025D3E7A7
:10276C000B4A136843F480731360FFF7B3FE0646FD
:10277C00074B1B6813F4807FCBD1FFF7ABFE801B9C
:10278C006428F5D90320BCE000100240000042424E
:10279C00007000405F4A136A43F001031362E36860
:1027AC0033B3FFF797FE06465A4B1B6A13F0020F22
:1027BC002FD1FFF78FFE801B41F288339842F3D95B
:1027CC0003209EE0052B09D0524B1A6A22F001021D
:1027DC001A621A6A22F004021A62E0E74D4B1A6A76
:1027EC0042F004021A621A6A42F001021A62D6E737
:1027FC00FFF770FE0646474B1B6A13F0020F08D01A
:10280C00FFF768FE801B41F288339842F3D903200E
:10281C0077E0E5B9E369002B72D03E4A526802F0CA
:10282C000C02082A56D0022B17D03B4B00221A66FA
:10283C00FFF750FE0446374B1B6813F0007F47D060
:10284C00FFF748FE001B0228F5D9032059E0314A56
:10285C00D36923F08053D361DCE72F4B00221A6637
:10286C00FFF738FE05462B4B1B6813F0007F06D094
:10287C00FFF730FE401B0228F5D9032041E0236A04
:10288C00B3F5803F1AD023494B6823F47413226AA2
:10289C00606A024313434B601F4B01221A66FFF719
:1028AC0019FE04461B4B1B6813F0007F0ED1FFF77B
:1028BC0011FE001B0228F5D9032022E0154A5368AB
:1028CC0023F40033A1680B435360DCE7002018E0CD
:1028DC00002016E0012B16D00E4B5B6803F4803100
:1028EC00226A914211D103F47013626A93420ED1A1
:1028FC00002006E001207047012002E0012000E0EA
:10290C00002002B070BD0120FBE70120F9E7012097
:10291C00F7E700BF00100240000042420F4B5B681B
:10292C0003F00C02082A01D00D487047C3F3834210
:10293C000C49885C13F4803F0BD0084B5B68C3F3E5
:10294C004043094AD35C064A02FB00F0B0FBF3F0AB
:10295C007047064B03FB00F0704700BF00100240AD
:10296C0000127A00786E0008886E000800093D009D
:10297C00002800F0A08070B50D460446524B1B6831
:10298C0003F007038B420BD24F4A136823F0070363
:10299C000B431360136803F007038B4240F08D80E8
:1029AC00236813F0020F17D013F0040F04D0474A1A
:1029BC00536843F4E0635360236813F0080F04D0AA
:1029CC00424A536843F460535360404A536823F0BF
:1029DC00F003A1680B435360236813F0010F31D04F
:1029EC006368012B20D0022B25D0384A126812F0D4
:1029FC00020F64D035494A6822F0030213434B603E
:102A0C00FFF768FD0646314B5B6803F00C03626808
:102A1C00B3EB820F16D0FFF75DFD801B41F28833BC
:102A2C009842F0D9032045E0284A126812F4003F7E
:102A3C00E0D101203EE0254A126812F0007FD9D186
:102A4C00012037E0204B1B6803F00703AB420AD987
:102A5C001D4A136823F007032B431360136803F01C
:102A6C000703AB422DD1236813F0040F06D0174A8D
:102A7C00536823F4E063E1680B435360236813F05D
:102A8C00080F07D0114A536823F46053216943EAB5
:102A9C00C1035360FFF742FF0C4B5B68C3F3031396
:102AAC000B4AD35CD8400B4B18600B4B1868FFF7E4
:102ABC00CDFC002070BD012070470120FAE70120F9
:102ACC00F8E70120F6E700BF0020024000100240AA
:102ADC008C6E0008700000206C000020014B186800
:102AEC00704700BF7000002008B5FFF7F7FF044BDC
:102AFC005B68C3F30223034AD35CD84008BD00BF14
:102B0C00001002409C6E000808B5FFF7E7FF044B6D
:102B1C005B68C3F3C223034AD35CD84008BD00BF33
:102B2C00001002409C6E000870B582B00446036829
:102B3C0013F0010F36D03F4BDB6913F0805F49D1A6
:102B4C003C4BDA6942F08052DA61DB6903F0805366
:102B5C000193019B0125384B1B6813F4807F3BD0FC
:102B6C00344B1B6A13F4407313D0626802F4407246
:102B7C009A420ED02F4A136A23F440702F49012633
:102B8C00C1F840640026C1F84064106213F0010FD4
:102B9C0036D1284A136A23F4407361680B431362DD
:102BAC00002D3ED1236813F0020F06D0214A536842
:102BBC0023F44043A1680B435360236813F0100FB8
:102BCC0034D01C4A536823F48003E1680B435360F0
:102BDC0000202CE00025BEE7174A136843F48073ED
:102BEC001360FFF777FC0646134B1B6813F4807FCA
:102BFC00B6D1FFF76FFC801B6428F5D9032016E0D3
:102C0C00FFF768FC06460B4B1B6A13F0020FC0D192
:102C1C00FFF760FC801B41F288339842F3D9032004
:102C2C0005E0D36923F08053D361BBE7002002B0E9
:102C3C0070BD00BF00100240007000400000424216
:102C4C0070B582B00024A446A6E0804DAA4210D0F4
:102C5C0007D97F4DAA420CD005F58035AA4208D081
:102C6C0013E0A5F58015AA4203D005F57025AA42FC
:102C7C0007D18A68002A58D0012A51D04361082410
:102C8C0003E0A5F58015AA42F3D0BEF1FF0F4ED894
:102C9C000646BEF1FF0F4CD84FEA8C0233680F2565
:102CAC00954023EA050304FA02F2134333604B68A0
:102CBC0013F0805F6ED0674B9A6942F001029A6103
:102CCC009B6903F001030193019B4FEA9C02951C45
:102CDC00614B53F825600CF003039D000F23AB40B0
:102CEC0026EA03065D4B984229D003F5806398428F
:102CFC0000F08E8003F58063984200F08B8003F522
:102D0C008063984219D004231AE0CC68BDE7CC68E4
:102D1C000434BAE7CC680834B7E7CC680C34B4E7B1
:102D2C0003610824B1E70024AFE70424ADE7061DD6
:102D3C00AFE7ACF108029200B0E7032300E00023F8
:102D4C00AB4033430232444D45F822304B6813F408
:102D5C00801F61D0424A936843EA0E0393604B682C
:102D6C0013F4001F5ED03E4AD36843EA0E03D360CF
:102D7C004B6813F4003F5BD0394A536843EA0E03A7
:102D8C0053604B6813F4803F58D0354A136843EABC
:102D9C000E0313600CF1010C0A6832FA0CF353D0D9
:102DAC00012303FA0CF302EA030E33EA0202F1D117
:102DBC004A68122A3FF649AF122A3FF666AF01A5C0
:102DCC0055F822F07F2C0008172D0008212D000843
:102DDC00332D0008972C0008972C0008972C00081E
:102DEC00972C0008972C0008972C0008972C0008AB
:102DFC00972C0008972C0008972C0008972C00089B
:102E0C00972C0008972C00081B2D0008272D000874
:102E1C00012395E7022393E7114A936823EA0E03F3
:102E2C0093609CE70E4AD36823EA0E03D3609FE7B6
:102E3C000B4A536823EA0E035360A2E7084A13684F
:102E4C0023EA0E031360A5E702B070BD0000221048
:102E5C000000311000100240000001400008014049
:102E6C00000401400AB10161704709040161704717
:102E7C00C36801EA030221EA030141EA024101614C
:102E8C00704730B40124056CAC40C56B6C600468B1
:102E9C0063604368102B05D0036899600368DA609F
:102EAC0030BC704703689A600368D960F8E700008B
:102EBC0060B310B402460168154B0B441548A0FBD7
:102ECC0003031B099B001364134BD363022382F887
:102EDC002130086820F47F5020F03000536894684B
:102EEC002343D468234314692343546923439469CB
:102EFC002343D469234303430B60002090630123D5
:102F0C0082F8213082F8200010BC704701207047F5
:102F1C00F8FFFDBFCDCCCCCC0000024038B5044648
:102F2C0090F82000012832D0012084F8200094F879
:102F3C002100C0B2012804D0002384F820300220E4
:102F4C0038BD022084F821000020A0632568286881
:102F5C0020F0010028602046FFF793FFE36A5BB185
:102F6C002268136843F00E0313602268136843F061
:102F7C00010313600020E3E72268136823F00403C5
:102F8C0013602268136843F00A031360EDE7022014
:102F9C00D6E790F82130DBB2022B06D004238363F2
:102FAC00002380F82030012070470268136823F05A
:102FBC000E0313600268136823F001031360036CA3
:102FCC00C16B012202FA03F34B6080F8212000232D
:102FDC0080F820301846704708B590F82130DBB2E5
:102FEC00022B03D004238363012008BD02681368FD
:102FFC0023F00E0313600268136823F001031360BF
:10300C000368194A934214D0143293421FD01432DD
:10301C0093421ED0143293421ED0143293421ED0CF
:10302C001432934202D04FF0807203E04FF48012BE
:10303C0000E001220D4B5A60012380F8213000235F
:10304C0080F82030436B6BB198470020CDE71022FD
:10305C00F0E74FF48072EDE74FF48052EAE74FF45B
:10306C008032E7E70020C0E7080002400000024081
:10307C0038B5C36B1A6804682568016C04238B404F
:10308C00134235D015F0040F32D0236813F0200F03
:10309C0003D1236823F0040323600368434A93425B
:1030AC0014D01432934218D01432934217D01432E5
:1030BC00934217D01432934217D01432934202D059
:1030CC004FF0806203E04FF4800200E00422384BA2
:1030DC005A60C36A03B1984738BD4022F7E74FF4F2
:1030EC008062F4E74FF48042F1E74FF48022EEE780
:1030FC0002238B4013423CD015F0020F39D02368C9
:10310C0013F0200F06D1236823F00A032360012358
:10311C0080F821300368254A934214D0143293422C
:10312C001CD0143293421BD0143293421BD0143255
:10313C0093421BD01432934202D04FF0007203E042
:10314C004FF4001200E00222194B5A60002380F861
:10315C002030836A002BBFD09847BDE72022F3E7CD
:10316C004FF40072F0E74FF40052EDE74FF40032E9
:10317C00EAE7082303FA01F11142ADD015F0080F6C
:10318C00AAD0236823F00E032360026CC16B0123C9
:10319C0003FA02F24A60836380F82130002380F83E
:1031AC002030036B002B97D0984795E7080002401E
:1031BC0000000240074AD36823F4E0631B041B0C95
:1031CC00000200F4E060034343F0BF6343F40033B8
:1031DC00D360704700ED00E000B5194BDB68C3F31A
:1031EC000223C3F1070CBCF1040F28BF4FF0040CF1
:1031FC0003F1040EBEF1060F18D9033B4FF0FF3E4E
:10320C000EFA0CFC21EA0C0199400EFA03F322EAA7
:10321C000303194300280BDB0901C9B200F160401C
:10322C0000F5614080F800135DF804FB0023E5E72E
:10323C0000F00F000901C9B2024B1954F4E700BFAA
:10324C0000ED00E014ED00E0002807DB00F01F02A9
:10325C00400901239340024A42F82030704700BFD6
:10326C0000E100E00138B0F1807F0BD24FF0E02399
:10327C005861054AF02182F823100020986107223A
:10328C001A6170470120704700ED00E070470000A4
:10329C0000B58DB02422002103A8FCF7ADFF00235C
:1032AC00019302931248134A0260436083604FF605
:1032BC00FF72C260036143618361032303930123A3
:1032CC000593099303A9FEF7A7FB50B900230193BB
:1032DC00029301A90648FEF771FC28B90DB05DF800
:1032EC0004FBFEF747F9F1E7FEF744F9F6E700BFF8
:1032FC00C4040020002C014000B58DB02422002114
:10330C0003A8FCF779FF00230193029312484FF0B6
:10331C0080420260436083604FF6FF72C2600361BB
:10332C0083610323039301230593099303A9FEF7F8
:10333C0073FB50B900230193029301A90648FEF7D1
:10334C003DFC28B90DB05DF804FBFEF713F9F1E76D
:10335C00FEF710F9F6E700BF0C05002000B58DB0A4
:10336C002422002103A8FCF747FF002301930293BA
:10337C001148124A0260436083604FF6FF72C260CC
:10338C00036183610323039301230593099303A929
:10339C00FEF742FB50B900230193029301A90648A2
:1033AC00FEF70CFC28B90DB05DF804FBFEF7E2F853
:1033BC00F1E7FEF7DFF8F6E75405002000040040C3
:1033CC0000B58BB000230693079308930993036809
:1033DC002D4A934208D0B3F1804F20D02B4A934210
:1033EC0038D00BB05DF804FB294B9A6942F40062AB
:1033FC009A619A6902F400620092009A9A6942F00A
:10340C0004029A619B6903F004030193019B4FF43E
:10341C004073069306A91F48FFF712FCE1E703F57A
:10342C000433DA6942F00102DA61DA6902F001026E
:10343C000292029A9A6942F004029A619B6903F023
:10344C0004030393039B0323069306A91148FFF778
:10345C00F7FBC6E70E4BDA6942F00202DA61DA6971
:10346C0002F002020492049A9A6942F004029A61F0
:10347C009B6903F004030593059BC023069306A9DF
:10348C000448FFF7DDFBACE7002C014000040040D2
:10349C00001002400008014008B500220F491048F6
:1034AC0002F0C3F970B90F490D4802F0D5F960B9B3
:1034BC000D490B4802F0D9FF50B9094802F0D3F975
:1034CC0048B908BDFEF756F8EDE7FEF753F8EFE7FD
:1034DC00FEF750F8F1E7FEF74DF8F2E77400002024
:1034EC009C050020D4000020C400002012230B8077
:1034FC00004870479000002004230B800048704760
:10350C00A4000020002393421ED200B510E00CF161
:10351C00370C01F813C000014FEA430C0CF1010CFD
:10352C004FF0000E01F80CE00133DBB2934209D2EC
:10353C004FEA107CB0F1204FE9D20CF1300C01F8BD
:10354C0013C0E8E75DF804FB7047000038B50B4B7F
:10355C00D3F8E807D3F8EC47D3F8F037C01800D10C
:10356C0038BD074D0822A91CFFF7CCFF042205F13A
:10357C0012012046FFF7C6FFF2E700BF00F0FF1F65
:10358C00A800002008B51A230B80FFF7DFFF0148C5
:10359C0008BD00BFA800002008B50A4628B9054997
:1035AC00054802F0B8FD034808BD0249024802F084
:1035BC00B2FDF8E760080020A46E000810B50A46BA
:1035CC00034C2146034802F0A6FD204610BD00BF67
:1035DC0060080020BC6E000808B50A4628B90549E9
:1035EC00054802F098FD034808BD0249024802F064
:1035FC0092FDF8E760080020C86E000808B50A467E
:10360C0028B90549054802F086FD034808BD024962
:10361C00024802F080FDF8E760080020D46E000834
:10362C00002070470020704710B50146044C20461E
:10363C0002F02AFF204602F047FF002010BD00BF19
:10364C009C05002010B5064C00220649204602F0CD
:10365C0013FF0549204602F017FF002010BD00BFE4
:10366C009C050020600E0020600A0020094BD3F856
:10367C00B832D3F814320BB10120704710B5054C99
:10368C000A460146204602F0F7FE204602F002FFF1
:10369C0010BD00BF9C050020022805D8DFE800F013
:1036AC0005040200012070470220704702680E4B8F
:1036BC009A4200D0704700B583B003F5DA33DA696B
:1036CC0042F40002DA61DB6903F400030193019B0D
:1036DC00002211461420FFF77FFD1420FFF7B4FDE4
:1036EC0003B05DF804FB00BF005C004008B500F5BA
:1036FC002C71D0F8EC0202F0CEF808BD08B501EB45
:10370C00810300EBC303D3F87C21D0F8EC0202F068
:10371C00EFF808BD08B501EB810300EBC303DA6BCE
:10372C00D0F8EC0202F02AF908BD08B5D0F8EC028A
:10373C0002F0CBF908BD10B504468368022B09D101
:10374C000121D4F8EC0202F0A9F9D4F8EC0202F051
:10375C007DF910BDFDF70EFFF2E7000010B5044631
:10376C00D0F8EC0202F09DF9A36923B1024A136967
:10377C0043F00603136110BD00ED00E008B5D0F86E
:10378C00EC0202F097F908BD10B504461D48C0F8CC
:10379C00EC42C4F8C0021C4B0360082343600223B4
:1037AC00836000238361C361036200F023F930BBA3
:1037BC00182300221146D4F8C00201F084F85823D3
:1037CC0000228021D4F8C00201F07DF8C023002231
:1037DC008121D4F8C00201F076F84FF488730022EE
:1037EC000121D4F8C00201F06EF84FF4807300226E
:1037FC008221D4F8C00201F066F8002010BDFDF75C
:10380C00B9FED5E760120020005C004008B5D0F886
:10381C00C00200F077F9FFF73FFF08BD08B59446EA
:10382C001A466346D0F8C00200F01EFFFFF734FFC3
:10383C0008BD08B5D0F8C00200F054FFFFF72CFF0C
:10384C0008BD08B5D0F8C00200F0C6FFFFF724FF92
:10385C0008BD08B5D0F8C00200F0FAFFFFF71CFF56
:10386C0008BDD0F8C03211F0800F08D101F07F01F3
:10387C0001EB810103EBC10191F86A01704701F082
:10388C007F01013101EB810103EBC10188787047A5
:10389C0008B5D0F8C00200F0FBFDFFF7FDFE08BD37
:1038AC0008B5D0F8C00200F075FFFFF7F5FE08BDB3
:1038BC0008B5D0F8C00200F047FFFFF7EDFE08BDD9
:1038CC0008B5D0F8C00200F05CFF08BD0048704796
:1038DC00501500207047704738B512F4804F44D013
:1038EC000468B4F850309BB291F800C003EBCC03E1
:1038FC00023304EB4303B3F80044C4F309048B69AB
:10390C00A34228D31B1B8B618B697BB9056835F8E7
:10391C002C309BB223F4804323F0700383F40053C8
:10392C0043F4004343F0800325F82C3012F0400F91
:10393C000ED002680D7832F825309BB223F4E043A8
:10394C0023F0700343F4004343F0C00322F8253006
:10395C0024B9204638BD00238B61D5E723460A895C
:10396C004969006801F049FFF3E70468B4F8503086
:10397C009BB291F800C003EBCC03063304EB43037A
:10398C00B3F80044C4F309048B69A3422FD31B1B67
:10399C008B618B697BB9056835F82C309BB223F4AD
:1039AC00804323F0700383F4005343F4004343F04B
:1039BC00800325F82C3012F0400F0FD1026891F8DB
:1039CC0000C032F82C309BB223F4E04323F0700398
:1039DC0043F4004343F0C00322F82C30002CB8D041
:1039EC0023464A894969006801F007FFB1E70023C3
:1039FC008B61CEE770B586B0002800F0818004465C
:103A0C0090F8A932EBB1032384F8A932206800F0B6
:103A1C0086FF254655F8106BEC460FCDACE80F0031
:103A2C002B68CCF80030231D0ECB304600F067FF1E
:103A3C00054658B1022384F8A9320125284606B060
:103A4C0070BD80F8A832FFF731FEDCE7002120685A
:103A5C0000F06FFF2B4616E05A1C02EB820104EBC0
:103A6C00C1010120487002EB820104F8313004EBF3
:103A7C00C1000021C17003EB830004EBC000816323
:103A8C00C1630164D3B261688B42E5D316E005EBE8
:103A9C00850304EBC303002283F8692183F8685182
:103AAC0083F86B21C3F87821C3F87C2105EB8503DF
:103ABC0004EBC303C3F880210135EDB2A942E6D86B
:103ACC00254655F8106BEC460FCDACE80F002B6873
:103ADC00CCF80030231D0ECB304600F02CFF0546F1
:103AEC0020B1022384F8A9320125A7E7002384F82A
:103AFC002430012384F8A932206801F07BFA9DE779
:103B0C0001259BE738B590F8A832012B11D004465B
:103B1C00012580F8A852006800F0F8FE29462046DE
:103B2C00FFF7D9FE206801F063FA002084F8A802A0
:103B3C0038BD0220FCE770B505460C46164612F05F
:103B4C00400F00F00E810268B2F850309BB2097839
:103B5C0003EBC103023302EB4303B3F80024C2F3BB
:103B6C000902A36993424ED99B1AA361A369002B46
:103B7C0066D16378002B49D12B68B3F8502092B2F0
:103B8C00134403EB0111B1F80434C3F30903A1F896
:103B9C000434B1F804346FEA43436FEA53439BB2E5
:103BAC00A1F804342B686278002A3CD1B3F8502079
:103BBC0092B21344227803EB0213B3F80C24C2F331
:103BCC000902A3F80C24B3F80C246FEA42426FEA02
:103BDC00524292B2A3F80C2421782846FFF79AFDA2
:103BEC0016F4804F41D02A68217832F821309BB2EC
:103BFC0023F4E04323F0700343F4404343F0800389
:103C0C0022F8213031E00023A361AFE7012BC9D1A9
:103C1C002B68B3F8502092B2134403EB011100232C
:103C2C00A1F80434BEE7012AD6D1B3F8502092B2E1
:103C3C001344227803EB02130022A3F80C24CBE7E5
:103C4C0016F4804F0DD0286830F821309BB223F445
:103C5C00E04323F0700343F4404343F0800320F827
:103C6C00213094F82430012B12D02A68217832F8B4
:103C7C0021309BB223F4E04323F0400383F0300364
:103C8C0043F4004343F0800322F82130002070BD40
:103C9C00636913446361E3691344E361216A236933
:103CAC00994224D3C91A21626278002A44D12A6825
:103CBC00B2F8501089B20A44217802EB0112B2F822
:103CCC000414C1F30901A2F804143E2B1BD95809A2
:103CDC0013F01F0F00D10138B2F8041489B280021E
:103CEC0080B2014341F40041A2F8041426E021B94A
:103CFC00002384F824301346D6E7002384F82430BC
:103D0C0023620B46D0E74BB9B2F804146FEA414179
:103D1C006FEA514189B2A2F804140FE0590813F06C
:103D2C00010F00D00131B2F8040480B2890289B2CB
:103D3C000143A2F8041401E0012A06D09BB22289A7
:103D4C006169286801F05EF98FE72A68B2F85010B3
:103D5C0089B20A44217802EB011299B2A2F8041438
:103D6C00ECE70268B2F850309BB2097803EBC10360
:103D7C00063302EB4303B3F80024C2F30902A36930
:103D8C0093424FD39B1AA361A369002B67D163782D
:103D9C00002B4AD12B68B3F8502092B2134403EB9A
:103DAC000111B1F80434C3F30903A1F80434B1F8D8
:103DBC0004346FEA43436FEA53439BB2A1F80434D3
:103DCC002B686278002A3DD1B3F8502092B213448C
:103DDC00227803EB0213B3F80C24C2F30902A3F804
:103DEC000C24B3F80C246FEA42426FEA524292B2AE
:103DFC00A3F80C2421782846FFF78CFC16F4804F8E
:103E0C007FF433AF2A68217832F821309BB223F447
:103E1C00E04323F0700343F4404343F0800322F863
:103E2C00213022E70023A361AEE7012BC8D12B6818
:103E3C00B3F8502092B2134403EB01110023A1F804
:103E4C000434BDE7012AD5D1B3F8502092B2134403
:103E5C00227803EB02130022A3F80C24CAE716F411
:103E6C00804F0DD1286830F821309BB223F4E04309
:103E7C0023F0700343F4404343F0800320F82130D7
:103E8C0094F82430012B7FF4F0AE63691344636122
:103E9C00E3691344E361216A2369994224D3C91A63
:103EAC0021622A686178002943D1B2F8501089B296
:103EBC000A44217802EB0112B2F80C14C1F3090187
:103ECC00A2F80C143E2B1BD9580913F01F0F00D16C
:103EDC000138B2F80C1489B2800280B2014341F46B
:103EEC000041A2F80C1426E021B9002384F82430F8
:103EFC001346D6E70023236284F824300B46D0E720
:103F0C004BB9B2F80C146FEA41416FEA514189B2D6
:103F1C00A2F80C140FE0590813F0010F00D0013176
:103F2C00B2F80C0480B2890289B20143A2F80C14D5
:103F3C0001E0012906D09BB262896169286801F011
:103F4C0061F892E6B2F8501089B20A44217802EB7B
:103F5C00011299B2A2F80C14EDE72DE9F0410546D7
:103F6C002868B0F8443013F4004F00F08E82B0F89B
:103F7C004440A3B214F00F0440F0E28013F0100F91
:103F8C006BD003889AB213F4006F40F09D8012F44A
:103F9C00004FE5D0038823F070031B051B0D43F085
:103FAC00800303802868B0F850309BB295F86821E4
:103FBC0003EBC203063300EB4303B3F80034C3F343
:103FCC000903C5F884318BB1D5F87C1171B1B5F802
:103FDC006E2101F012FCD5F88421D5F87C31134404
:103FEC00C5F87C3100212846FFF788FB2A68138826
:103FFC0099B213F4006FB3D101F44051B1F5405FA5
:10400C00AED0B2F850309BB21A44B2F80C34C3F3B1
:10401C000903A2F80C34D5F878313E2B77D959091D
:10402C0013F01F0F00D10139B2F80C349BB2890286
:10403C0089B20B4343F40043A2F80C342A6813886A
:10404C009BB223F4804323F0700383F4405343F476
:10405C00004343F08003138082E703889BB223F470
:10406C00E14323F070036FEA43436FEA53439BB27F
:10407C0003802A68B2F850309BB295F8281003EBF5
:10408C00C103023302EB4303B3F80034C3F3090357
:10409C006B64EA6B1344EB6300212846FFF73AFB91
:1040AC0095F82430002B3FF45BAF2B6C002B7FF486
:1040BC0057AF95F824302A6843F08003A2F84C30AF
:1040CC00002385F824304BE7B0F850309BB295F8BC
:1040DC00682103EBC203063300EB4303B3F800344F
:1040EC00C3F30903C5F88431B5F86E2105F52C71BD
:1040FC0001F083FB2A68138823F070031B051B0D4A
:10410C0043F0800313802846FFF7F0FA28E74BB9F9
:10411C00B2F80C346FEA43436FEA53439BB2A2F8F4
:10412C000C348BE7590813F0010F00D00131B2F8B1
:10413C000C3498B28B029BB20343A2F80C347DE78B
:10414C0030F824309EB213F4004F4CD116F0800F8F
:10415C003FF406AF621C02EB820105EBC10128683B
:10416C0030F824309BB223F4E14323F070036FEA60
:10417C0043436FEA53439BB220F82430CB78012B96
:10418C0000F0F28016F4807F40F07A812868B0F855
:10419C0050309BB2621C02EB820215F8326003EBCA
:1041AC00C603023300EB4303B3F80034C3F3090333
:1041BC0004EB840205EBC202126C9A4240F24C8171
:1041CC0004EB840705EBC707D21A3A6404EB8402AC
:1041DC0005EBC202126C002A40F04581314628469C
:1041EC00FFF798FABCE630F8243023F070031B0577
:1041FC001B0D43F0800320F8243004EB8401C9002C
:10420C0001F5B47105EB010804EB840305EBC30362
:10421C0093F87431002B42D12868B0F850309BB21F
:10422C0004EB840205EBC20292F8682103EBC20393
:10423C00063300EB4303B3F80074C7F3090717BB4D
:10424C0004EB840305EBC303D3F884213A44C3F88D
:10425C008421D3F87C213A44C3F87C21D3F88031F3
:10426C003BB104EB840305EBC303D3F878319F42D5
:10427C0075D204EB840305EBC30393F8681128464D
:10428C00FFF73CFA62E704EB840105EBC1013B4606
:10429C00B1F86E21D1F87C1101F0AFFAD0E704EB44
:1042AC00840305EBC30393F86B31022B35D02968DB
:1042BC0004EB840205EBC20292F8680131F820305D
:1042CC009BB223F4E04323F0700343F4004343F028
:1042DC00C00321F82030286892F8682130F8223089
:1042EC0013F4804F20D0B0F850309BB203EBC203D4
:1042FC00023300EB4303B3F80074C7F30907002F34
:10430C009ED004EB840105EBC1013B46B1F8702152
:10431C00D1F87C1101F071FA92E7324641462846F9
:10432C00FFF7DAFA07468BE7B0F850309BB203EB95
:10433C00C203063300EB4303B3F80074C7F3090759
:10434C00002F3FF47DAF04EB840105EBC1013B462C
:10435C00B1F87221D1F87C1101F04FFA70E74146A7
:10436C00286800F063FEF1E604EB840305EBC3035D
:10437C0000221A6493F83430FBB116F0400F37D09A
:10438C004B781BBB2B68B3F8502092B21344621CC1
:10439C0002EB820215F8322003EB0213B3F804246B
:1043AC00C2F30902A3F80424B3F804246FEA4242CE
:1043BC006FEA524292B2A3F80424013404EB840451
:1043CC0015F834102846FFF7A5F9C9E5012BF4D1EF
:1043DC002B68B3F8502092B21344621C02EB820299
:1043EC0015F8322003EB02130022A3F80424E4E7AF
:1043FC002A68631C03EB830305EBC3035B78D3B917
:10440C00B2F850309BB21344621C02EB820215F8D6
:10441C00322003EB0213B3F80C24C2F30902A3F805
:10442C000C24B3F80C246FEA42426FEA524292B267
:10443C00A3F80C24C1E7012BBFD1B2F850309BB2CA
:10444C001344621C02EB820215F8322003EB0213B8
:10445C000022A3F80C24B0E704EB840205EBC202A3
:10446C0000271764B2E604EB840205EBC202D66B9C
:10447C001E44D663546C2344536400F0D7FD6FE59F
:10448C0032462846FFF757FB6AE50020BDE8F0816D
:10449C0090F8A832012B0DD010B50446012380F8FA
:1044AC00A83280F82410006800F09CFD002084F8ED
:1044BC00A80210BD0220704710B584B004460068F5
:1044CC0000F09AFD10F4004F20D110F4806F21D130
:1044DC0010F4804F2FD110F4005F37D110F4805FAF
:1044EC003ED110F4006F40F0878010F4007F40F054
:1044FC00AE8010F4807F27D02268B2F844309BB293
:10450C0023F480739BB2A2F844301DE02046FFF7E1
:10451C0024FD19E02268B2F844309BB223F4806386
:10452C009BB2A2F844302046FFF705F90021204643
:10453C00FFF7AEFF08E02268B2F844309BB223F4D8
:10454C0080439BB2A2F8443004B010BD2268B2F88C
:10455C0044309BB223F400539BB2A2F84430F3E7EF
:10456C002268B2F840309BB223F004039BB2A2F84D
:10457C0040302268B2F840309BB223F008039BB263
:10458C00A2F840302046FFF7F9F82268B2F8443020
:10459C009BB223F480539BB2A2F84430D4E7226838
:1045AC0032F8231004AA02EB430222F8101C013348
:1045BC00DBB2072BF3D92268B2F840309BB243F040
:1045CC000103A2F840302268B2F840309BB223F0CD
:1045DC0001039BB2A2F840302368B3F8442012F4D4
:1045EC00806FF9D0B3F8442092B222F4806292B278
:1045FC00A3F8442000230BE00023DAE7226804A987
:10460C0001EB430131F8101C22F823100133DBB20B
:10461C00072BF3D92268B2F840309BB243F0080361
:10462C00A2F840302268B2F844309BB223F4006305
:10463C009BB2A2F844302268B2F840309BB243F0EF
:10464C000403A2F840302046FFF788F87CE7226884
:10465C00B2F844309BB223F400739BB2A2F84430FE
:10466C002046FFF762F86FE710B50446084611F0D4
:10467C00800F25D101F0070C0CEB8C01C90001F562
:10468C00B47E04EB0E010CEB8C0C04EBCC0C4FF059
:10469C00000E8CF869E100F0070008700A61CB701D
:1046AC00022B1AD094F8A832012B19D0012384F8CC
:1046BC00A832206800F050F9002084F8A80210BD40
:1046CC0001F0070C0CF1010C0CEB8C0104EBC1019B
:1046DC004FF0010E81F801E0DDE700230B71E1E7FB
:1046EC000220ECE710B504460B4611F0800F1FD1E9
:1046FC0001F0070202EB8201C90001F5B47101441B
:10470C0002EB820200EBC202002082F8690103F086
:10471C0007030B7094F8A832012B13D0012384F8F3
:10472C00A832206800F0FDFA002084F8A80210BD21
:10473C0001F00702013202EB820100EBC101012002
:10474C004870E4E70220F2E710B501F0070C0CEB1F
:10475C008C01C90001F5B4710CEB8C0E00EBCE0E84
:10476C00CEF87C21CEF880310024CEF884418EF82E
:10477C0069418EF868C10144006800F057FC20467E
:10478C0010BD01F0070101EB810100EBC101D1F873
:10479C008401704738B501F0070404F1010C0CEBEF
:1047AC008C0104EB840E00EBCE0ECEF83C20CEF840
:1047BC00403001228EF84C20CEF848300025CEF83F
:1047CC00445000EBC1035A7000F8314019460068A0
:1047DC0000F02CFC284638BD38B501F007054268BE
:1047EC00954231D804460B4611F0800F1ED101EBD7
:1047FC008101C90001F5B471014403EB830300EBA3
:10480C00C303002283F8692101238B700D7094F887
:10481C00A832012B1AD0012384F8A832206800F0AA
:10482C006BFB5DB1002084F8A80238BD6B1C03EB58
:10483C00830100EBC10101224A70E5E704F52C71FC
:10484C00206800F0DDFBEDE70120EEE70220ECE74D
:10485C000B4601F00F014268914230D810B5044666
:10486C0013F0800F21D103F0070202EB8201C90083
:10487C0001F5B471014402EB820200EBC20200208C
:10488C0082F8690100228A7003F007030B7094F818
:10489C00A832012B15D0012384F8A832206800F02F
:1048AC0050FB002084F8A80210BD03F0070201326F
:1048BC0002EB820100EBC10101204870E2E701200C
:1048CC0070470220F0E711F0800F0BD001F00701C8
:1048DC00013101EB810100EBC10152B90A73CB80AC
:1048EC000020704701EB8101C90001F5B47101444E
:1048FC00F3E701220A730B811B0C4B81F0E784B0A8
:10490C0001A880E80E00002004B070470346002088
:10491C00A3F844004FF43F42A3F840207047B0F88E
:10492C00403023F47C535B045B0CA0F84030002037
:10493C0070470020704784B0844601A880E80E00C0
:10494C000123ACF840300020ACF84000ACF8440037
:10495C00ACF8500004B0704710B5034691F800C095
:10496C0030F82C2092B222F4EC4222F0700292B277
:10497C00C878032861D8DFE800F0555C02580020A5
:10498C0048F2800E42EA0E0223F82C2091F800C067
:10499C0033F82C2092B222F4E04222F070024CEA5E
:1049AC00020242EA0E0223F82C200A7B002A40F075
:1049BC00DC804A78002A51D0B3F8502092B21A44C5
:1049CC000C7802EB0412B1F806C04FEA5C0C4FEA0B
:1049DC004C0CA2F800C40C7833F8242012F0400FD1
:1049EC000CD033F8242092B222F4E04222F0700270
:1049FC0042F4004242F0C00223F82420CA78012A73
:104A0C001DD0097833F8212092B222F4E04222F032
:104A1C00400282F0200242F4004242F0800223F86D
:104A2C00212017E142F40072AAE742F4C062002090
:104A3C00A6E742F480620020A2E70120A0E70978F3
:104A4C0033F8212092B222F4E04222F0400242F4E8
:104A5C00004242F0800223F82120FBE0B3F8502002
:104A6C0092B21A440C7802EB0412B1F806C04FEA69
:104A7C005C0C4FEA4C0CA2F808C4B3F8502092B26C
:104A8C001A440C7802EB0412B2F80CC4CCF3090CE7
:104A9C00A2F80CC40C693E2C39D94FEA541E14F000
:104AAC001F0F01D10EF1FF3EB2F80CC41FFA8CFCA3
:104ABC004FEA8E2E1FFA8EFE4CEA0E0C4CF4004C74
:104ACC00A2F80CC40C7833F8242012F4804F0CD0CC
:104ADC0033F8242092B222F4E04222F0700242F425
:104AEC00404242F0800223F82420097869BB33F855
:104AFC00212092B222F4804222F0700282F44052C1
:104B0C0042F4004242F0800223F82120A2E04CB98A
:104B1C00B2F80C446FEA44446FEA5444A4B2A2F8CD
:104B2C000C44CFE74FEA540C14F0010F01D00CF1F8
:104B3C00010CB2F80C44A4B24FEA8C2C1FFA8CFC7A
:104B4C0044EA0C0CA2F80CC4BCE733F8212092B256
:104B5C0022F4804222F0700282F4005242F40042AD
:104B6C0042F0800223F8212074E0CA78022A72D025
:104B7C000C7833F8242092B222F4E24222F0700234
:104B8C0042F4004242F0800223F82420B3F8502073
:104B9C0092B21A4491F800C002EB0C12B1F808C0A2
:104BAC004FEA5C0C4FEA4C0CA2F800C4B3F850204E
:104BBC0092B21A4491F800C002EB0C12B1F80AC080
:104BCC004FEA5C0C4FEA4C0CA2F808C44A78002A55
:104BDC0050D10C7833F8242012F4804F0CD033F8D9
:104BEC00242092B222F4E04222F0700242F44042BD
:104BFC0042F0800223F824200C7833F8242012F0A1
:104C0C00400F0CD033F8242092B222F4E04222F070
:104C1C00700242F4004242F0C00223F8242091F8C2
:104C2C0000C033F82C2092B222F4804222F07002A1
:104C3C0082F4405248F28004224323F82C20097855
:104C4C0033F8212092B222F4E04222F040022243B7
:104C5C0023F8212010BD0C7833F8242092B222F4D2
:104C6C00E04222F0700242F4014242F0800223F84A
:104C7C0024208BE70C7833F8242012F4804F0CD0CE
:104C8C0033F8242092B222F4E04222F0700242F473
:104C9C00404242F0800223F824200C7833F8242080
:104CAC0012F0400F0CD033F8242092B222F4E042E0
:104CBC0022F0700242F4004242F0C00223F8242099
:104CCC00CA78012A1ED00C7833F8242092B222F430
:104CDC00E04222F0400282F0200242F4004242F014
:104CEC00800223F82420097833F8212092B222F490
:104CFC00804222F0700242F4004242F0800223F81B
:104D0C002120A7E70C7833F8242092B222F4E04259
:104D1C0022F0400242F4004242F0800223F82420A8
:104D2C00E1E70B7B002B46D14B7813B30A7830F8B4
:104D3C00223013F0400F0CD030F822309BB223F409
:104D4C00E04323F0700343F4004343F0C00320F826
:104D5C0022300A7830F822309BB223F4E04323F05F
:104D6C00400343F4004343F0800320F8223000203A
:104D7C0070470A7830F8223013F4804F0CD030F89A
:104D8C0022309BB223F4E04323F0700343F44043FE
:104D9C0043F0800320F822300A7830F822309BB29E
:104DAC0023F4804323F0700343F4004343F0800367
:104DBC0020F82230DBE74B78002B4ED10A7830F804
:104DCC00223013F4804F0CD030F822309BB223F4F5
:104DDC00E04323F0700343F4404343F0800320F896
:104DEC0022300A7830F8223013F0400F0CD030F813
:104DFC0022309BB223F4E04323F0700343F40043CE
:104E0C0043F0C00320F822300A7830F822309BB2ED
:104E1C0023F4E04323F0700343F4004343F0C00356
:104E2C0020F822300B7830F8232092B222F4804202
:104E3C0022F0700248F2800C42EA0C0220F8232087
:104E4C000A7830F822309BB223F4E04323F040037D
:104E5C0043EA0C0320F8223089E70A7830F8223034
:104E6C0013F4804F0CD030F822309BB223F4E04383
:104E7C0023F0700343F4404343F0800320F82230C6
:104E8C000A7830F8223013F0400F0CD030F8223072
:104E9C009BB223F4E04323F0700343F4004343F04C
:104EAC00C00320F822300A7830F822309BB223F469
:104EBC00E04323F0700343F4404343F0800320F8B5
:104ECC0022300B7830F8232092B222F4E04222F008
:104EDC00400248F2800C42EA0C0220F823200A78A7
:104EEC0030F822309BB223F4804323F0700343EA62
:104EFC000C0320F822303AE74B788BB10A7830F863
:104F0C0022309BB223F4E04323F0400383F01003E0
:104F1C0043F4004343F0800320F822300020704714
:104F2C000A7830F822309BB223F4804323F07003CC
:104F3C0083F4805343F4004343F0800320F8223081
:104F4C00ECE70B7B002B4BD14B7833B30A7830F862
:104F5C00223013F0400F0CD030F822309BB223F4E7
:104F6C00E04323F0700343F4004343F0C00320F804
:104F7C002230CB78012B33D00A7830F822309BB218
:104F8C0023F4E04323F0400383F0200343F4004375
:104F9C0043F0800320F8223022E00A7830F82230E7
:104FAC0013F4804F0CD030F822309BB223F4E04342
:104FBC0023F0700343F4404343F0800320F8223085
:104FCC000A7830F822309BB223F4804323F070032C
:104FDC0083F4405343F4004343F0800320F8223021
:104FEC000020704711B98023A0F84C300020704786
:104FFC000020704700207047B0F8440080B2704722
:10500C000020704710B45C1C640800EB420202F5EF
:10501C00806207E00B78487843EA002322F8043BCF
:10502C000231013C002CF5D110BC704770B505461F
:10503C000C464A78012A3BD00B7B002B40F0A68211
:10504C008B690A69934240F284829B1A8B61B5F892
:10505C0050309BB22B44217803EB0113B3F80C14A2
:10506C00C1F30901A3F80C143E2A40F276825109CF
:10507C0012F01F0F00D10139B3F80C2492B289023F
:10508C0089B20A4342F40042A3F80C24227835F882
:10509C0022309BB223F4804323F0700383F44053FB
:1050AC0043F4004343F0800325F82230002070BD08
:1050BC008E6909698E4200D90E46237B73B3E3785F
:1050CC00022B4DD0236A9B1B2362217835F82130AB
:1050DC0013F0400F00F0F581002A40F0E281B5F8A2
:1050EC0050309BB22B4403EB0113B3F80C24C2F3E6
:1050FC000902A3F80C243E2E40F2BA81710916F075
:10510C001F0F00D10139B3F80C2492B2890289B275
:10511C000A4342F40042A3F80C24CBE1B6B2334666
:10512C00E28861692846FFF76DFFB5F850309BB2F5
:10513C002B44227803EB0213A3F80464227835F88D
:10514C0022309BB223F4E04323F0400383F030037E
:10515C0043F4004343F0800325F822300020A6E7F7
:10516C00236A994280F06681227835F822309BB20E
:10517C0023F4E04323F0700343F4014343F0800332
:10518C0025F82230236A9B1B2362227835F82230C3
:10519C0013F0400F00F0A7806378B3BBB5F8503024
:1051AC009BB22B4403EB0213B3F80C24C2F3090299
:1051BC00A3F80C243E2E0FD9710916F01F0F00D145
:1051CC000139B3F80C2492B2890289B20A4342F431
:1051DC000042A3F80C241AE04EB9B3F80C246FEA81
:1051EC0042426FEA524292B2A3F80C240FE07208CA
:1051FC0016F0010F00D00132B3F80C1489B29202F0
:10520C0092B20A43A3F80C2401E0012B30D0B3B2C4
:10521C00628961692846FFF7F5FE6369334463616F
:10522C00236A226993422DD99B1B23626378002B3E
:10523C0045D1B5F850309BB22B44227803EB0213C6
:10524C00B3F80424C2F30902A3F804243E2E1DD99A
:10525C00710916F01F0F00D10139B3F8042492B272
:10526C00890289B20A4342F40042A3F8042428E0DC
:10527C00B5F850309BB22B4403EB0213B2B2A3F837
:10528C000C24C4E7002222621E46CFE74EB9B3F8C5
:10529C0004246FEA42426FEA524292B2A3F8042409
:1052AC000FE0720816F0010F00D00132B3F80414AD
:1052BC0089B2920292B20A43A3F8042401E0012BB2
:1052CC0006D0B3B2228961692846FFF79BFE35E709
:1052DC00B5F850309BB22B44227803EB0213B2B2D8
:1052EC00A3F80424EDE76378B3BBB5F850309BB258
:1052FC002B4403EB0213B3F80424C2F30902A3F802
:10530C0004243E2E0FD9710916F01F0F00D101395C
:10531C00B3F8042492B2890289B20A4342F40042DF
:10532C00A3F804241AE04EB9B3F804246FEA4242FD
:10533C006FEA524292B2A3F804240FE0720816F0FE
:10534C00010F00D00132B3F8041489B2920292B268
:10535C000A43A3F8042401E0012B30D0B3B2228914
:10536C0061692846FFF74EFE636933446361236A23
:10537C00226993422DD99B1B23626378002B45D164
:10538C00B5F850309BB22B44227803EB0213B3F8E0
:10539C000C24C2F30902A3F80C243E2E1DD971096A
:1053AC0016F01F0F00D10139B3F80C2492B2890208
:1053BC0089B20A4342F40042A3F80C2428E0B5F861
:1053CC0050309BB22B4403EB0213B2B2A3F804246B
:1053DC00C4E7002222621E46CFE74EB9B3F80C2474
:1053EC006FEA42426FEA524292B2A3F80C240FE0E9
:1053FC00720816F0010F00D00132B3F80C1489B208
:10540C00920292B20A43A3F80C2401E0012B06D0BD
:10541C00B3B2628961692846FFF7F4FD8EE6B5F8F0
:10542C0050309BB22B44227803EB0213B2B2A3F898
:10543C000C24EDE7217835F8212092B222F4E242D7
:10544C0022F0700242F4004242F0800225F8212042
:10545C00B5F8502092B22A44217802EB01129BB28B
:10546C00A2F80434228961692846FFF7CBFD65E672
:10547C004EB9B3F80C246FEA42426FEA524292B230
:10548C00A3F80C2416E0720816F0010F00D00132BC
:10549C00B3F80C1489B2920292B20A43A3F80C240A
:1054AC0008E0B5F850309BB22B4403EB0113B2B2B9
:1054BC00A3F80C24B3B2628961692846FFF7A2FDF8
:1054CC003CE6B2BBB5F850309BB22B4403EB011356
:1054DC00B3F80424C2F30902A3F804243E2E0FD916
:1054EC00710916F01F0F00D10139B3F8042492B2E0
:1054FC00890289B20A4342F40042A3F8042421E051
:10550C004EB9B3F804246FEA42426FEA524292B2A7
:10551C00A3F8042416E0720816F0010F00D0013233
:10552C00B3F8041489B2920292B20A43A3F8042489
:10553C0008E0B5F850309BB22B4403EB0113B2B228
:10554C00A3F80424B3B2228961692846FFF75AFDF7
:10555C00F4E500228A611A4679E54AB9B3F80C24BD
:10556C006FEA42426FEA524292B2A3F80C248DE5E4
:10557C00510812F0010F00D00131B3F80C2492B293
:10558C00890289B21143A3F80C147FE5CB78022B66
:10559C004DD0012B40F02F8189692369994240F24B
:1055AC00E680C91AA161F2B9B5F8502092B22A442A
:1055BC00217802EB0112B2F80414C1F30901A2F82C
:1055CC0004143E2B40F2D780580913F01F0F00D162
:1055DC000138B2F8041489B2800280B2014341F45C
:1055EC000041A2F804146278002A40F0F680B5F865
:1055FC00502092B22A44217802EB0112B2F80C141A
:10560C00C1F30901A2F80C143E2B40F2CD805909CC
:10561C0013F01F0F00D10139B2F80C349BB2890280
:10562C0089B20B4343F40043A2F80C342EE5F2B9D3
:10563C00B0F850309BB203440A7803EB0213B3F872
:10564C000424C2F30902A3F804240A693E2A31D9BE
:10565C00510912F01F0F00D10139B3F8042492B292
:10566C00890289B20A4342F40042A3F80424637805
:10567C00002B51D1B5F850309BB22B44227803EB60
:10568C000213B3F80C24C2F30902A3F80C24226908
:10569C003E2A28D9510912F01F0F00D10139B3F855
:1056AC000C2492B2890289B20A4342F40042A3F854
:1056BC000C2433E04AB9B3F804246FEA42426FEA8F
:1056CC00524292B2A3F80424D1E7510812F0010F10
:1056DC0000D00131B3F8042490B28A0292B2024392
:1056EC00A3F80424C3E74AB9B3F80C246FEA424286
:1056FC006FEA524292B2A3F80C240FE0510812F058
:10570C00010F00D00131B3F80C2490B28A0292B28E
:10571C000243A3F80C2401E0012B1DD0E369002BFC
:10572C003FF4B4AC227835F8221044F2400303EA7B
:10573C0001008B4302D000287FF4A8AC35F822304E
:10574C009BB223F4E04323F0700343F4004343F093
:10575C00C00325F8223099E4B5F850309BB22B44A5
:10576C00227803EB0213228AA3F80C24D6E7002339
:10577C00A3610B4617E74BB9B2F804146FEA414129
:10578C006FEA514189B2A2F804142CE7590813F0BE
:10579C00010F00D00131B2F8040480B2890289B241
:1057AC000143A2F804141EE74BB9B2F80C346FEAAB
:1057BC0043436FEA53439BB2A2F80C3466E4590896
:1057CC0013F0010F00D00131B2F80C3498B28B02F7
:1057DC009BB20343A2F80C3458E4012A7FF456AC74
:1057EC00B5F8502092B22A44217802EB01129BB2F8
:1057FC00A2F80C344AE4012059E410B45C0800EB24
:10580C00420000F5806007E030F8042B0A70C2F308
:10581C0007224A700231013C002CF5D113F0010F24
:10582C0001D003880B7010BC704798B108B50346C3
:10583C00D0F8B40210B10020C3F8B40209B1C3F817
:10584C00B012012183F89C121A701846FDF79CFFC8
:10585C00002008BD0220704719B1C0F8B412002016
:10586C0070470220704708B5FDF7D0FF002008BD37
:10587C0008B5D0F8B4322BB11B68984700B908BDF5
:10588C000220FCE70220FAE708B5D0F8B4325B68D6
:10589C009847002008BD38B5044600F52A752846FF
:1058AC0000F035F90123C4F89432B4F8AE32C4F8E0
:1058BC00983294F8A81201F01F03012B0ED0022B82
:1058CC0011D02BB101F080012046FDF7BAFF03E0A7
:1058DC002946204600F0CAFA002038BD2946204649
:1058EC0000F0F8FAF8E72946204600F023FBF3E72E
:1058FC0038B504460D4691BB1346D0F89422032AC2
:10590C0003D0052A24D0084633E0D0F86011D0F833
:10591C00642191420DD9891AC0F860118A4206D9C6
:10592C008AB21946204600F037FC284621E092B294
:10593C00F7E7D0F8B4321B691BB190F89C22032A0C
:10594C0004D0204600F030FC284612E09847F8E7D7
:10595C000021C0F89412FDF774FF284609E0D0F836
:10596C00B4329B6933B190F89C22032A04D1984736
:10597C00002038BD0220FCE70220FAE738B50446C7
:10598C000D46002953D11346D0F89422022A0CD08C
:10599C00042A00D01AB980212046FDF752FF94F852
:1059AC00A032012B3ED0284638BD016A426A914292
:1059BC001BD8C169B1FBF2F302FB13132BB98A425A
:1059CC0003D8D0F8983299421CD3D4F8B432DB689F
:1059DC001BB194F89C22032A21D080212046FDF78C
:1059EC0030FF204600F0EBFBD9E78A1A026292B234
:1059FC00194600F0BAFB00231A4619462046FDF75B
:105A0C0057FFCCE70022114600F0AFFB0021C4F891
:105A1C0098120B460A462046FDF74AFFBFE7204680
:105A2C009847DAE7002384F8A0322846BCE7D0F880
:105A3C00B4325B6933B190F89C22032A04D19847A5
:105A4C000020B1E70220AFE70220ADE770B50446B5
:105A5C00402300221146FDF7E1FE0125C4F8585100
:105A6C004026C4F864613346002280212046FDF7AD
:105A7C00D5FEA561666284F89C520023C4F894326A
:105A8C006360C4F8A432D4F8B8322BB1D4F8B43271
:105A9C005B68002120469847002070BD01740020EF
:105AAC00704790F89C3280F89D32042380F89C3229
:105ABC000020704790F89C32042B01D000207047D6
:105ACC0090F89D3280F89C32F8E708B590F89C323B
