:020000040800F2
:1000000000500020053B0008E1180008E318000834
:10001000E5180008E7180008E918000800000000CB
:10002000000000000000000000000000EB180008C5
:10003000ED18000800000000EF180008F118000893
:100040004D3B00084D3B00084D3B00084D3B000870
:100050004D3B00084D3B00084D3B00084D3B000860
:100060004D3B00084D3B00084D3B00084D3B000850
:100070004D3B00084D3B00084D3B0008F9180008B7
:100080004D3B0008091900084D3B00084D3B000896
:100090004D3B00084D3B00084D3B00084D3B000820
:1000A0004D3B00084D3B00084D3B00084D3B000810
:1000B0004D3B00084D3B00084D3B00084D3B000800
:1000C0004D3B00084D3B00084D3B00084D3B0008F0
:1000D0004D3B000819190008291900084D3B00087C
:1000E0004D3B00084D3B00084D3B00080000000060
:1000F0000000000000000000000000000000000000
:0C01000000000000000000005FF808F1A3
:10010C000348044B834202D0034B03B1184770479A
:10011C007800002078000020000000000548064907
:10012C000B1AD90F01EBA301491002D0034B03B1F9
:10013C00184770477800002078000020000000006D
:10014C0010B5064C237843B9FFF7DAFF044B13B113
:10015C000448AFF300800123237010BD7800002009
:10016C00000000008C3C000808B5044B1BB104498E
:10017C000448AFF30080BDE80840CFE70000000062
:10018C007C0000208C3C00080B460146184600F011
:10019C0001B800BF10B5054C34B113460A460146F0
:1001AC00022000F0CFF910BD204610BD510500080B
:1001BC0070B50D4E0D4D761BB61006D0002455F8BB
:1001CC00043B01349847A642F9D1094E094D03F07E
:1001DC0057FD761BB61006D0002455F8043B0134AD
:1001EC009847A642F9D170BD444500084445000823
:1001FC004C45000844450008830730B548D0541ED0
:10020C00002A3FD00346CAB201E0013C3AD303F8BE
:10021C00012B9D07F9D1032C2DD9CDB245EA05252B
:10022C000F2C45EA054536D9A4F1100222F00F0C2B
:10023C0003F1200EE6444FEA121C03F1100242E9CE
:10024C00045542E9025510327245F8D10CF1010205
:10025C0014F00C0F03EB021204F00F0C13D0ACF1E2
:10026C00040323F003030433134442F8045B934266
:10027C00FBD10CF003042CB1CAB21C4403F8012BC3
:10028C009C42FBD130BD64461346002CF4D1F9E7F7
:10029C0003461446BFE71A46A446E0E770B5064687
:1002AC000D46002830D0836963B384682C4B9C4284
:1002BC0034D02C4B9C423CD02B4B9C4208BFF46856
:1002CC00A3891B072ED5236963B3297839B932E08A
:1002DC0023685A1C2260197015F8011F59B3A368C2
:1002EC00013B002BA360F3DAA269934201DB0A29DC
:1002FC00EED12246304600F041F80130ECD14FF0FF
:10030C00FF3070BD00F05AFBB369B468002BCDD13F
:10031C00304600F053FB124B9C42CAD17468A3893F
:10032C001B07D0D42146304600F08AF80028CCD0E8
:10033C00E5E7B468C4E7A368013B002BA36008DAC7
:10034C0022460A21304600F019F80130D7D00A2095
:10035C0070BD0A2223681046591C21601A7070BDAA
:10036C00EC3C0008CC3C0008AC3C0008024B0146BD
:10037C001868FFF793BF00BF04000020F8B50646CD
:10038C000D46144608B1836943B3254B9C422AD0D1
:10039C00244B9C4229D0244B9C4208BFF468A26990
:1003AC00A389A2601A0722D5236903B32268616965
:1003BC00D31AEDB299422F4629DD0133A1680139D8
:1003CC00A160511C2160157062699A4216D0A389F4
:1003DC00DB0701D50A2D11D03846F8BD00F0EEFA36
:1003EC000F4B9C42D4D17468D9E7B468D7E7214647
:1003FC00304600F025F838B92369D7E72146304656
:10040C0000F07AF90028E7D04FF0FF37E4E72146F7
:10041C00304600F071F90028F6D101232268CDE7AF
:10042C00EC3C0008CC3C0008AC3C000803460A46F7
:10043C00024908681946FFF7A1BF00BF040000205D
:10044C003C4B70B51D6806460C460DB1AB69E3B16B
:10045C00394B9C421FD0394B9C424DD0384B9C425F
:10046C0008BFEC68B4F90C3018079AB219D5216999
:10047C0011B312F001002FD000256069A560404235
:10048C00A06100292ED0002070BD284600F096FAFD
:10049C00294B9C42DFD16C68B4F90C3018079AB226
:1004AC00E5D4D1063ED5520728D4216943F0080380
:1004BC00A3819AB20029DCD102F42070B0F5007F40
:1004CC00D7D02146304600F0DDFAB4F90C30216962
:1004DC009AB212F00100CFD1950758BF6069A060A5
:1004EC000029D0D1120658BF0846CDD543F04003A1
:1004FC004FF0FF30A38170BDAC68B3E7616B51B1B5
:10050C0004F14402914204D0304600F049FBB4F9A6
:10051C000C30002262630022216923F02403C4E919
:10052C000012C3E7092243F0400332604FF0FF3062
:10053C00A38170BD04000020EC3C0008CC3C0008FA
:10054C00AC3C0008F0B5264C064625680F4683B037
:10055C0005B36C681F2C3FDCA6B1D5F8880048B3F6
:10056C00D0F800114FF0010C0CFA04FC00EB840ED7
:10057C004CEA0101022E40F82420C0F80011CEF8FC
:10058C00803010D00020631C02346B6045F824705E
:10059C0003B0F0BD134D144925600029D9D009686A
:1005AC00C5F88810D5E7D0F8043143EA0C03C0F83D
:1005BC000431E7E70D49CDE9002369B14FF48470AC
:1005CC00AFF3008040B1DDE9002300216C68C0E985
:1005DC004011C5F88800C5E74FF0FF30D8E700BFE1
:1005EC00280200209C010020A83C0008000000000C
:1005FC00F8B58B890C46190707463BD46268002A6C
:10060C0055DDE66A002E50D000223D683A6013F4A6
:10061C00805250D101233846216AB047421C5CD02D
:10062C00A389E66A5B0705D56368C01A636B0BB1D7
:10063C00236CC01A0246216A00233846B047411C7D
:10064C003BD13B68002B38D01D2B01D0162B4BD146
:10065C0000232269C4E90023616B3D6029B304F1D6
:10066C004403994202D0384600F09AFA0023184607
:10067C006363F8BD2669C6B19A0718BF00232568C5
:10068C0008BF63692660AD1BA3600CE02B463246A5
:10069C00D4F828C03846216AE047B0F1000CA5EB2D
:1006AC000C05664412DD002DF0DC0020F8BD226C38
:1006BC00002AA6DCF9E7606DB4E7002223696260CA
:1006CC002360A389DB04C7D56065C5E7A3894FF018
:1006DC00FF3043F04003A381F8BD3B68002B9FD053
:1006EC001D2B06D0162B04D0A38943F04003A38105
:1006FC00F8BD00203D60F8BD38B50B69BBB10C46A8
:10070C00054608B18369B3B10D4B9C4211D00D4B1A
:10071C009C4213D00C4B9C4208BFEC68B4F90C30D3
:10072C002BB121462846BDE83840FFF761BF0020B9
:10073C0038BD6C68F2E700F041F9E5E7AC68EDE72D
:10074C00EC3C0008CC3C0008AC3C000838B540B38D
:10075C0003690446E3B1174B1D680DB1AB69CBB10E
:10076C00154B9C420FD0154B9C4221D0144B9C42F4
:10077C0008BFEC68B4F90C3053B121462846BDE8EB
:10078C003840FFF735BF6C68B4F90C30002BF4D14E
:10079C00002038BD284600F011F9074B9C42E2D1ED
:1007AC00F1E7084B08491868BDE8384000F046B935
:1007BC00AC68DFE704000020EC3C0008CC3C0008EF
:1007CC00AC3C0008A43C000805070008002070475A
:1007DC00014900F033B900BF05070008002070473D
:1007EC00682270B54D1E02FB05F50E4605F174012D
:1007FC0000F03CFA044640B100210C30C4E9016021
:10080C0005F168022160FFF7F7FC204670BD00BFC0
:10081C00274B2DE9F0411E680746B36953B34FF0DF
:10082C0004084836D6E90134013B04D51EE05A1CB5
:10083C0004F168041AD0B4F90C50013B002DF6D128
:10084C001C4B08222946C4E90055C4E90253C4E9EB
:10085C0004556566A56104F15C00FFF7CDFCC4E9A5
:10086C000D55C4E912552046BDE8F08135682DB10F
:10087C002E46D7E7304600F01FF8D0E74FF4D6717C
:10088C00384600F0F3F9044668B105602946054680
:10089C00C0F804800C304FF4D072A060FFF7ACFCB1
:1008AC0034602E46BEE70C2330603B60DBE700BFB4
:1008BC00A43C00080100FFFF0023334A2DE9F04758
:1008CC001268C0E912339042036508BF01232F4917
:1008DC0008BF836181620546FFF79AFF03462846ED
:1008EC006B60FFF795FFA86028460024FFF790FF88
:1008FC0004236E68DFF898A0DFF89890DFF89880F2
:10090C00264FE8600822F3602146C6E90044C6E998
:10091C0004447466B460B46106F15C00FFF76CFCCF
:10092C001F4BC6E9086AC6E90A983763AE68082205
:10093C00F3602146C6E90044C6E904447466B46019
:10094C00B46106F15C00FFF757FC164BC6E9086A68
:10095C00C6E90A983763EE682146F3600822C6E9B7
:10096C000044C6E904447466B460B46106F15C00EA
:10097C00FFF742FC0123C6E9086AC6E90B87C6F8F3
:10098C002890AB61BDE8F087A43C0008DD070008A7
:10099C00550D00087D0D0008BD0D0008DD0D00088B
:1009AC000900010012000200024B0349186800F014
:1009BC0045B800BFA43C000805070008836903B9CB
:1009CC007AE77047704700BF704700BF704700BFA1
:1009DC00704700BF024B0349186800F00FB800BF06
:1009EC0004000020D9070008024B0349186800F0E6
:1009FC0005B800BF04000020E90700082DE9F0410C
:100A0C000026884600F14807D7E90154013D0ED471
:100A1C00A389013D012B06D9B4F90E30013302D064
:100A2C002046C04706436B1C04F16804F0D13F68B4
:100A3C00002FE9D13046BDE8F08100BF2DE9F84325
:100A4C004FF000090746884600F14806D6E90154E4
:100A5C00013D10D4A389013D012B08D9B4F90E3006
:100A6C00013304D021463846C04749EA00096B1CC3
:100A7C0004F16804EED13668002EE7D14846BDE893
:100A8C00F88300BFF0B58B890C46990797B007D552
:100A9C00012204F14703C4E90432236017B0F0BD0E
:100AAC00B4F90E10054600292DDB6A4600F0BCF99E
:100ABC00002827DB019E4FF4806706F47046A6F5EC
:100ACC000056B6FA86F639462846760900F0CEF876
:100ADC0030B3A3891A4A43F08003AA62C4E904071D
:100AEC00A3812060002ED9D02846B4F90E1000F056
:100AFC00AFF90028D2D0A38923F0030343F00103FC
:100B0C00A381CBE7A38913F0800F14BF40274FF4C8
:100B1C00806728463946002600F0A8F80028D8D16E
:100B2C00B4F90C309A05B9D4012123F0030304F174
:100B3C00470243F00203C4E90421A3812260ADE71C
:100B4C00DD07000870B50C46B1F90E1016460029E9
:100B5C001D4696B013DB6A4600F066F900280EDBE2
:100B6C0001994FF4806301F47041A1F50051B1FA81
:100B7C0081F1002049092960336016B070BD002254
:100B8C00B4F90C302A601B0604D5402300203360D6
:100B9C0016B070BD4FF480630020336016B070BD8A
:100BAC00002952D038B551F8043C0C1F002BB8BFAB
:100BBC00E418054600F074F92B4A1368002B45D055
:100BCC00A3420CD921686018834228D06360284660
:100BDC001460BDE8384000F065B9A3420FD81A463E
:100BEC005B68002BF9D11168501884421DD034D3A6
:100BFC00636054602846BDE8384000F053B9116872
:100C0C005018A04215D028D8216860188342EFD123
:100C1C0018685B680144C4E900135460EAE718687B
:100C2C005B680144C4E90013D1E7236819441160DF
:100C3C00E0E720680144501883421160DAD1D3E90F
:100C4C0000030144C2E90013D4E7704728466360EF
:100C5C001460BDE8384000F025B90C2328462B6001
:100C6C00BDE8384000F01EB92C020020F8B5CD1CB0
:100C7C0025F0030508350C2D38BF0C25002D064634
:100C8C0023DBA94221D8264F00F00AF93A6822B397
:100C9C00144603E063682246FBB11C4623685B1BC9
:100CAC00F8D40B2B15D8636894420CBF3B6053608F
:100CBC00304600F0F7F804F10B00231D20F007007C
:100CCC00C21A01D01B1AA350F8BD0C2300203360AC
:100CDC00F8BD23601C442560EAE77968D1B1294648
:100CEC00304600F01FF8431C01460CD0C41C24F005
:100CFC000304A04205D03046611A00F013F801300D
:100D0C0001D02560D4E70C233046336000F0CAF8DC
:100D1C000020F8BD304600F005F87860DFE700BF32
:100D2C002C020020002238B5064D044608462A60E5
:100D3C0000F0F8F8431C00D038BD2B68002BFBD01A
:100D4C00236038BD3402002010B50C46B1F90E10EA
:100D5C0000F0AAF8002803DB636D0344636510BD43
:100D6C00A38923F48053A38110BD00BF00207047DA
:100D7C002DE9F0410C46B1F90C101F46CB05054688
:100D8C0016460BD421F48051A1813B4632462846AD
:100D9C00B4F90E10BDE8F04100F01EB8B4F90E1015
:100DAC000223002200F066F8B4F90C10EAE700BF49
:100DBC0010B50C46B1F90E1000F05CF8A389421C7A
:100DCC000EBF23F4805343F480536065A38110BDA0
:100DDC00B1F90E1000F016B838B50C4611460022C9
:100DEC008446074D20462A601A46644602F0D0FA23
:100DFC00431C00D038BD2B68002BFBD0236038BDC2
:100E0C0034020020002238B5064D044608462A60FC
:100E1C0000F060F8431C00D038BD2B68002BFBD0D1
:100E2C00236038BD3402002070B50026074D0446FF
:100E3C00084611462E6000F055F8431C00D070BDDA
:100E4C002B68002BFBD0236070BD00BF3402002048
:100E5C00002238B5064D044608462A6000F04AF8D0
:100E6C00431C00D038BD2B68002BFBD0236038BD51
:100E7C003402002038B50C46114600228446074D3A
:100E8C0020462A601A46644600F03CF8431C00D009
:100E9C0038BD2B68002BFBD0236038BD34020020FA
:100EAC00704700BF704700BF38B50C461146002292
:100EBC008446074D20462A601A46644600F02AF8FC
:100ECC00431C00D038BD2B68002BFBD0236038BDF1
:100EDC00340200205822024B4FF0FF301A6070474A
:100EEC00340200205822024B4FF0FF301A6070473A
:100EFC00340200205822024B00201A60704700BFB9
:100F0C00340200205822024B4FF0FF301A60704719
:100F1C00340200205822024B4FF0FF301A60704709
:100F2C0034020020044A05491368002B08BF0B4605
:100F3C00184410601846704738020020F80500204D
:100F4C0080F0004002E000BF81F0004142001FBF72
:100F5C005FEA410392EA030F7FEA226C7FEA236C7B
:100F6C006AD04FEA1262D2EB1363C1BFD218414070
:100F7C0048404140B8BF5B42192B88BF704710F006
:100F8C00004F40F4000020F07F4018BF404211F0A9
:100F9C00004F41F4000121F07F4118BF494292EA11
:100FAC00030F3FD0A2F1010241FA03FC10EB0C003D
:100FBC00C3F1200301FA03F100F0004302D54942CA
:100FCC0060EB4000B0F5000F13D3B0F1807F06D377
:100FDC0040084FEA310102F10102FE2A51D2B1F16F
:100FEC00004F40EBC25008BF20F0010040EA030064
:100FFC007047490040EB0000013A28BFB0F5000FE4
:10100C00EDD2B0FA80FCACF1080CB2EB0C0200FA99
:10101C000CF0AABF00EBC25052421843BCBFD040E8
:10102C001843704792F0000F81F4000106BF80F462
:10103C0000000132013BB5E74FEA41037FEA226C25
:10104C0018BF7FEA236C21D092EA030F04D092F0F0
:10105C00000F08BF0846704790EA010F1CBF002024
:10106C00704712F07F4F04D1400028BF40F0004081
:10107C00704712F100723CBF00F50000704700F0A1
:10108C00004343F0FE4040F4000070477FEA2262C8
:10109C0016BF08467FEA23630146420206BF5FEA99
:1010AC00412390EA010F40F4800070474FF0000399
:1010BC0004E000BF10F0004348BF40425FEA000C60
:1010CC0008BF704743F0964301464FF000001CE008
:1010DC0050EA010208BF70474FF000030AE000BF5E
:1010EC0050EA010208BF704711F0004302D540429C
:1010FC0061EB41015FEA010C02BF8446014600200E
:10110C0043F0B64308BFA3F18053A3F50003BCFA28
:10111C008CF2083AA3EBC25310DB01FA02FC6344D5
:10112C0000FA02FCC2F12002BCF1004F20FA02F2DC
:10113C0043EB020008BF20F00100704702F12002CF
:10114C0001FA02FCC2F1200250EA4C0021FA02F230
:10115C0043EB020008BF20EADC7070474FF0FF0C35
:10116C001CEAD0521EBF1CEAD15392EA0C0F93EA30
:10117C000C0F6FD01A4480EA010C400218BF5FEAD2
:10118C0041211ED04FF0006343EA501043EA511145
:10119C00A0FB01310CF00040B1F5000F3EBF49003F
:1011AC0041EAD3715B0040EA010062F17F02FD2A43
:1011BC001DD8B3F1004F40EBC25008BF20F0010026
:1011CC00704790F0000F0CF0004C08BF49024CEA3D
:1011DC00502040EA51207F3AC2BFD2F1FF0340EACF
:1011EC00C250704740F400004FF00003013A5DDC40
:1011FC0012F1190FDCBF00F000407047C2F1000281
:10120C00410021FA02F1C2F1200200FA02FC5FEA6D
:10121C00310040F1000053EA4C0308BF20EADC70B7
:10122C00704792F0000F00F0004C02BF400010F429
:10123C00000F013AF9D040EA0C0093F0000F01F0D6
:10124C00004C02BF490011F4000F013BF9D041EAF8
:10125C000C018FE70CEAD15392EA0C0F18BF93EAFA
:10126C000C0F0AD030F0004C18BF31F0004CD8D124
:10127C0080EA010000F00040704790F0000F17BFAB
:10128C0090F0004F084691F0000F91F0004F14D0F1
:10129C0092EA0C0F01D142020FD193EA0C0F03D149
:1012AC004B0218BF084608D180EA010000F000404C
:1012BC0040F0FE4040F40000704740F0FE4040F427
:1012CC00400070474FF0FF0C1CEAD0521EBF1CEAC6
:1012DC00D15392EA0C0F93EA0C0F69D0A2EB0302E4
:1012EC0080EA010C49024FEA402037D04FF080537E
:1012FC0043EA111143EA10130CF000408B4238BF43
:10130C005B0042F17D024FF4000C8B4224BF5B1A50
:10131C0040EA0C00B3EB510F24BFA3EB510340EA9E
:10132C005C00B3EB910F24BFA3EB910340EA9C004C
:10133C00B3EBD10F24BFA3EBD10340EADC001B01BC
:10134C0018BF5FEA1C1CE0D1FD2A3FF650AF8B4260
:10135C0040EBC25008BF20F0010070470CF0004C6D
:10136C004CEA50207F32C2BFD2F1FF0340EAC25098
:10137C00704740F400004FF00003013A37E792F059
:10138C00000F00F0004C02BF400010F4000F013AB7
:10139C00F9D040EA0C0093F0000F01F0004C02BFB2
:1013AC00490011F4000F013BF9D041EA0C0195E71B
:1013BC000CEAD15392EA0C0F08D142027FF47DAFB4
:1013CC0093EA0C0F7FF470AF084676E793EA0C0FA4
:1013DC0004D14B023FF44CAF08466EE730F0004CA2
:1013EC0018BF31F0004CCAD130F000427FF45CAF32
:1013FC0031F000437FF43CAF5FE700BF4FF0FF3CA0
:10140C0006E000BF4FF0010C02E000BF4FF0010CF2
:10141C004DF804CD4FEA40024FEA41037FEA226CBB
:10142C0018BF7FEA236C11D001B052EA530C18BFDD
:10143C0090EA010F58BFB2EB030088BFC81738BF42
:10144C006FEAE17018BF40F0010070477FEA226C30
:10145C0002D15FEA402C05D17FEA236CE4D15FEA2C
:10146C00412CE1D05DF8040B704700BF8446084660
:10147C006146FFE70FB5FFF7C9FF002848BF10F121
:10148C00000F0FBD4DF808EDFFF7F4FF0CBF012066
:10149C0000205DF808FB00BF4DF808EDFFF7EAFFF0
:1014AC0034BF012000205DF808FB00BF4DF808EDAB
:1014BC00FFF7E0FF94BF012000205DF808FB00BFA0
:1014CC004DF808EDFFF7D2FF94BF012000205DF826
:1014DC0008FB00BF4DF808EDFFF7C8FF34BF012033
:1014EC0000205DF808FB00BF4FEA4002B2F1FE4F4E
:1014FC000FD34FF09E03B3EB12620DD94FEA0023CA
:10150C0043F0004310F0004F23FA02F018BF4042A2
:10151C0070474FF00000704712F1610F01D1420289
:10152C0005D110F0004008BF6FF0004070474FF03D
:10153C000000704742000ED2B2F1FE4F0BD34FF0B9
:10154C009E03B3EB126209D44FEA002343F000432D
:10155C0023FA02F070474FF00000704712F1610F50
:10156C0001D1420202D14FF0FF3070474FF0000022
:10157C00704700BF72B6FEE700B591B0282200217B
:10158C0006A8FEF739FE00230193029303930493FC
:10159C000593012206924FF4803307930A9202229C
:1015AC000D920E934FF4E0130F9306A800F094FFE6
:1015BC0080B90F23019302210291002303934FF46E
:1015CC0080620492059301A801F0B8F920B911B01A
:1015DC005DF804FBFFF7CEFFFFF7CCFF08B500F07A
:1015EC0041FFFFF7C9FF00F00FF800F069F800F0B9
:1015FC0089F800F0A1F801F0A5FD01F0D7FD01F08C
:10160C0007FE02F011FAFEE72DE9F04188B0002444
:10161C000494059406940794264B9A6942F01002A0
:10162C009A619A6902F010020092009A9A6942F04B
:10163C0020029A619A6902F020020192019A9A6939
:10164C0042F004029A619A6902F004020292029A30
:10165C009A6942F008029A619B6903F008030393AC
:10166C00039BDFF8548022464FF40051404601F0B2
:10167C0053FB124D22464FF4E041284601F04CFB3F
:10168C004FF40053049301270597069402260796FE
:10169C0004A9404601F02EFA4FF4E0430493059759
:1016AC000694079604A9284601F024FA08B0BDE870
:1016BC00F08100BF0010024000100140000C0140FE
:1016CC0000B583B00E4B5A6942F001025A615B6956
:1016DC0003F001030193019B002211460F2001F03E
:1016EC00D5FC0F2001F00AFD00221146112001F05B
:1016FC00CDFC112001F002FD03B05DF804FB00BF2E
:10170C000010024008B50A480A4B03604FF4E1335D
:10171C00436000238360C3600361042242618361E0
:10172C00C36100F01FFB00B908BDFFF723FFFBE707
:10173C00C40200200038014008B50A480A4B036077
:10174C004FF4E133436000238360C36003610822DC
:10175C0042618361C36100F005FB00B908BDFFF76E
:10176C0009FFFBE70C03002000440040F0B589B0F2
:10177C0004460023049305930693079303684B4A8E
:10178C00934204D04A4A93424BD009B0F0BD494B26
:10179C009A6942F480429A619A6902F480420092FA
:1017AC00009A9A6942F008029A619B6903F0080357
:1017BC000193019B40230493022305930323079376
:1017CC003D4F04A9384601F095F980260496002572
:1017DC000595069504A9384601F08CF9374A5368EB
:1017EC0043F0E06343F0040353603548354B03602A
:1017FC0045608560C660056145618561C56101F024
:10180C00B1FA58B92E4BE3635C62002211462520D5
:10181C0001F03CFC252001F071FCB6E7FFF7AAFEB5
:10182C00F0E7244BDA6942F40032DA61DA6902F447
:10183C0000320292029A9A6942F004029A619B6900
:10184C0003F004030393039B0423049302230593E3
:10185C00032307931C4E04A9304601F04BF90823CF
:10186C00049300250595069504A9304601F042F92C
:10187C001648174B03601023436085608023C360B8
:10188C00056145618561C56101F06CFA58B90F4B72
:10189C00A3635C6200221146262001F0F7FB262090
:1018AC0001F02CFC71E7FFF765FEF0E70038014012
:1018BC000044004000100240000C014000000140B8
:1018CC003C02002058000240000801408002002029
:1018DC0080000240FEE7FEE7FEE7FEE7FEE770470A
:1018EC007047704708B500F0CFFD08BD08B5024839
:1018FC0001F018FB08BD00BF3C02002008B50248EF
:10190C0001F010FB08BD00BF8002002008B50248A2
:10191C0000F07CFB08BD00BFC402002008B50248E3
:10192C0000F074FB08BD00BF0C03002082B00E4B0E
:10193C009A6942F001029A619A6902F001020092DE
:10194C00009ADA6942F08052DA61DB6903F0805365
:10195C000193019B054A536823F0E06343F0007345
:10196C00536002B0704700BF0010024000000140FD
:10197C0003681B4A90420AD0B0F1804F07D0A2F501
:10198C009432904203D002F58062904203D123F04E
:10199C0070034A681343124A90420AD0B0F1804F48
:1019AC0007D0A2F59432904203D002F580629042A7
:1019BC0003D123F44073CA68134323F080034A69AC
:1019CC00134303608B68C3620B688362044B9842B9
:1019DC0002D00123436170470B690363F9E700BF31
:1019EC00002C0140002857D070B50D46044690F8E5
:1019FC003D30002B4BD0022384F83D302268936895
:101A0C0023F4804323F007039360214651F8040B21
:101A1C00FFF7AEFF21688A688B690E6A286810434D
:101A2C0023F4407C2CF0030CAA68AB6942EA032334
:101A3C0043EA0C0323F47C4323F0FC03EA69D5F856
:101A4C000CC04CEA022C4CEA030C2A6A13032A69D8
:101A5C0043EA021343EA0C0326F022066A686D6916
:101A6C0042EA05123243886021688B6123681A624E
:101A7C00012384F8463084F83E3084F83F3084F8F3
:101A8C00423084F8433084F83D30002070BD80F83B
:101A9C003C3001F0EFFBAEE70120704701F01F0175
:101AAC00012303FA01FC036A23EA0C030362036AB1
:101ABC0002FA01F10B430362704738B5044690F803
:101ACC003E00C0B294F83F3094F84220D2B294F861
:101ADC0043C00D46B1B9012849D1012A48D102238E
:101AEC0084F83E3084F842307DB3042D39D0012285
:101AFC0000212068FFF7D2FF012204212068FFF7A4
:101B0C00CDFF27E0DBB25FFA8CFC042912D0012850
:101B1C0033D1012B2CD1012A31D1BCF1010F30D1A1
:101B2C00022384F83E3084F83F3084F8423084F845
:101B3C004330D9E7012B1CD1BCF1010F1BD102237F
:101B4C0084F83F3084F84330CEE70122002120682E
:101B5C00FFF7A4FF2268136843F001031360002011
:101B6C0006E0012204212068FFF798FFF2E701202C
:101B7C0038BD0120FCE71846FAE70120F8E71846C3
:101B8C00F6E71046F4E7000090F83C30012B2CD01F
:101B9C0010B4012380F83C30022380F83D300368F8
:101BAC005A689C6822F0700C0A6842EA0C025A606F
:101BBC0003680F4A93420AD0B3F1804F07D0A2F5C5
:101BCC009432934203D002F58062934204D124F004
:101BDC0080044A6814439C60012380F83D30002344
:101BEC0080F83C30184610BC70470220704700BF8C
:101BFC00002C0140026802F10C0353E8003F23F073
:101C0C00C0030C3242E800310029F3D1202380F8C4
:101C1C0041307047026802F10C0353E8003F23F493
:101C2C0090730C3242E800310029F3D1026802F1C2
:101C3C00140353E8003F23F00103143242E800314F
:101C4C000029F3D1036B012B05D0202380F84230FF
:101C5C00002303637047026802F10C0353E8003F52
:101C6C0023F010030C3242E800310029F3D1ECE7E9
:101C7C0090F84130DBB2212B01D0022070478368F1
:101C8C00B3F5805F17D0036A5A1C02621A78036896
:101C9C005A60C38C9BB2013B9BB2C3844BB90268A4
:101CAC00D36823F08003D3600268D36843F0400309
:101CBC00D360002070470369002BE4D1036A1B88B2
:101CCC000268C3F308035360036A02330362E0E75C
:101CDC0010B504460268136923F44053C1680B43E2
:101CEC00136183680269134342691A430168CB6824
:101CFC0023F4B05323F00C031343CB6002685369F5
:101D0C0023F4407381690B4353610268134B9A426D
:101D1C0020D000F0CFFE024602EB820202EB8202E0
:101D2C0063689B00B2FBF3F20D48A0FB023149093A
:101D3C00642303FB11231B013233A0FB03235B0938
:101D4C0003F0F00202EB011203F00F0321681344BD
:101D5C008B6010BD00F0BEFE0246DDE7003801408E
:101D6C001F85EB5160B310B5044690F8413013B3A6
:101D7C00242384F841302268D36823F40053D360C1
:101D8C002046FFF7A5FF2268136923F490431361E3
:101D9C002268536923F02A0353612268D36843F401
:101DAC000053D36000206064202384F8413084F811
:101DBC004230606310BD80F84030FFF7D7FCD7E7A6
:101DCC000120704738B590F84130DBB2202B30D170
:101DDC00044600292FD00AB9012038BD0162828443
:101DEC00C28400234364212084F84100A06B134D6E
:101DFC008562A06B124DC562A06B124D0563A06B82
:101E0C00436320681346021DA06B00F0E1FF2368BA
:101E1C006FF040021A60226802F1140353E8003F8D
:101E2C0043F08003143242E800310029F3D1002042
:101E3C00D3E70220D1E70120CFE700BF551E0008F1
:101E4C00BD1E0008C91E000808B50346406A1B6881
:101E5C001B6813F0200F1AD10023C384026802F10F
:101E6C00140353E8003F23F08003143242E800319E
:101E7C000029F3D1026802F10C0353E8003F43F050
:101E8C0040030C3242E800310029F3D108BD01F0C7
:101E9C00DFFBFBE708B50168CA6822F04002CA60A4
:101EAC00202280F8412001F0D3FB002008BD7047B0
:101EBC0008B5406AFFF7FBFF08BD704710B5446AD0
:101ECC0023685A6994F84130DBB2212B10D0236877
:101EDC005A6902F0400294F84230DBB2222B11D046
:101EEC00636C43F010036364204601F083FB10BD68
:101EFC0002F08002002AEAD00023E3842046FFF798
:101F0C0079FEE4E7002AEBD00023E3852046FFF7B7
:101F1C0081FEE5E708B5406A0023C385C38401F060
:101F2C0069FB08BD704790F84230DBB2222B69D1B7
:101F3C008368B3F5805F4FD0826AB3F5805F04D0BD
:101F4C00002B56D10369002B53D103685B681370C7
:101F5C00836A01338362C38D9BB2013B9BB2C38501
:101F6C00002B51D100B583B00268D36823F0200355
:101F7C00D3600268D36823F48073D360026853691A
:101F8C0023F001035361202380F842300023436384
:101F9C00036B012B33D100230363026802F10C03A2
:101FAC0053E8003F23F010030C3242E800310029C3
:101FBC00F3D103681A6812F0100F06D000220192B8
:101FCC001A6801925B680193019B818DFFF7AAFF50
:101FDC00002003B05DF804FB0269002AACD1826AD0
:101FEC0003685B68C3F308031380836A023383625C
:101FFC00B1E703685B6803F07F031370A8E701F097
:10200C006BFAE5E7022070470020704730B583B0CB
:10201C00044602681368D068516913F00F0505D1A6
:10202C0013F0200F02D010F0200F19D12DB111F0A8
:10203C00010119D110F4907F16D1216B01297DD0AB
:10204C0013F0800F03D010F0800F40F0188113F0C4
:10205C00400F03D010F0400F40F0158103B030BD9D
:10206C002046FFF760FFF9E713F0010F06D010F4DC
:10207C00807F03D0626C42F00102626413F0040FA3
:10208C0004D019B1626C42F00202626413F0020FC8
:10209C0004D019B1626C42F00402626413F0080FB0
:1020AC0007D010F0200F00D119B1626C42F0080279
:1020BC006264626C002AD1D013F0200F02D010F0B1
:1020CC00200F29D123685B6903F04003626C12F086
:1020DC00080F00D163B32046FFF79CFD23685B69B2
:1020EC0013F0400F20D0226802F1140353E8003F94
:1020FC0023F04003143242E800310029F3D1E36BA2
:10210C0073B1634A5A63E06B00F0C0FE0028A5D09F
:10211C00E06B436B9847A1E72046FFF704FFD1E73C
:10212C00204601F067FA99E7204601F063FA95E73B
:10213C00204601F05FFA002363648FE713F0100F61
:10214C003FF47EAF10F0100F3FF47AAF00230193F1
:10215C001368019353680193019B536913F0400F6B
:10216C0051D0E26B13685B689BB2002B3FF476AFE7
:10217C00A18D99427FF672AFE3859369202B37D0FE
:10218C00226802F10C0353E8003F23F480730C32F5
:10219C0042E800310029F3D1226802F1140353E81C
:1021AC00003F23F00103143242E800310029F3D13F
:1021BC00226802F1140353E8003F23F04003143269
:1021CC0042E800310029F3D1202384F84230002367
:1021DC002363226802F10C0353E8003F23F0100341
:1021EC000C3242E800310029F3D1E06B00F02BFEF9
:1021FC0002236363A18DE38D9BB2C91A89B2204679
:10220C00FFF790FE2AE7A18DE38D9BB2C91A89B224
:10221C00E38D9BB2002B3FF421AF00293FF41EAF9E
:10222C00226802F10C0353E8003F23F490730C3244
:10223C0042E800300028F3D1226802F1140353E87D
:10224C00003F23F00103143242E800300028F3D1A0
:10225C00202384F8423000232363226802F10C030C
:10226C0053E8003F23F010030C3242E80030002802
:10227C00F3D1022363632046FFF754FEEEE62046BB
:10228C00FFF7F6FCEAE62046FFF704FEE6E600BFA1
:10229C00211F000808B5406A01234363036B012B1F
:1022AC0002D0FFF70AFE08BD818D4908FFF73AFE00
:1022BC00F9E708B50346406A1B681B6813F0200F4A
:1022CC002BD10023C385026802F10C0353E8003FB5
:1022DC0023F480730C3242E800310029F3D10268F8
:1022EC0002F1140353E8003F23F00103143242E8D7
:1022FC0000310029F3D1026802F1140353E8003FC6
:10230C0023F04003143242E800310029F3D120239A
:10231C0080F84230036B012B07D000234363036B1F
:10232C00012B0FD001F0D8F808BD026802F10C03A4
:10233C0053E8003F23F010030C3242E8003100292F
:10234C00F3D1EAE7818DFFF7EDFDEDE730B583B012
:10235C00044613468162828500254564222280F85A
:10236C004220C26B1F489062E26B1F48D062E26B46
:10237C001E481063E26B556320680A46011DE06B32
:10238C0000F026FD019523681A6801925B680193A1
:10239C00019B23695BB1226802F10C0353E8003FF7
:1023AC0043F480730C3242E800310029F3D12268E7
:1023BC0002F1140353E8003F43F00103143242E8E6
:1023CC0000310029F3D1226802F1140353E8003FD5
:1023DC0043F04003143242E800310029F3D10020CD
:1023EC0003B030BDBF220008A1220008C91E00089E
:1023FC0008B590F84230DBB2202B08D149B10AB9AC
:10240C00012008BD00230363FFF7A0FFF9E70220BA
:10241C00F7E70120F5E7000010B504460E4B1878DD
:10242C004FF47A73B3FBF0F30C4A1068B0FBF3F083
:10243C0000F072FE68B90F2C01D901200AE00022CD
:10244C0021464FF0FF3000F021FE054B1C600020B0
:10245C0000E0012010BD00BF6800002070000020CB
:10246C006C00002008B5074A136843F01003136092
:10247C00032000F0F9FD0F20FFF7CEFFFFF756FA0F
:10248C00002008BD00200240034A1168034B1B7852
:10249C000B441360704700BF5403002068000020F9
:1024AC00014B1868704700BF5403002082B0084BE2
:1024BC001B68084AA2FB03235B0A00FB03F301938E
:1024CC0000BF019B5A1E0192002BF9D102B070473C
:1024DC0070000020D34D6210002800F0F18170B51F
:1024EC0082B00446036813F0010F2CD0994B5B6843
:1024FC0003F00C03042B1DD0964B5B6803F00C030C
:10250C00082B12D06368B3F5803F41D0002B55D116
:10251C0003F1804303F504331A6822F480321A6005
:10252C001A6822F480221A6037E08A4B5B6813F435
:10253C00803FE7D0874B1B6813F4003F03D06368E0
:10254C00002B00F0BF81236813F0020F75D0814B74
:10255C005B6813F00C0F5FD07E4B5B6803F00C03D1
:10256C00082B54D02369002B00F08A807A4B01226F
:10257C001A60FFF795FF0546764B1B6813F0020FA8
:10258C0075D1FFF78DFF401B0228F5D903209EE182
:10259C00704A136843F480331360636843B3FFF7E6
:1025AC007FFF05466B4B1B6813F4003FCBD1FFF745
:1025BC0077FF401B6428F5D9032088E1B3F5A02FE1
:1025CC0009D0644B1A6822F480321A601A6822F41B
:1025DC0080221A60E1E703F18043A3F53C331A68CB
:1025EC0042F480221A601A6842F480321A60D4E7EE
:1025FC00FFF756FF0546574B1B6813F4003FA2D05C
:10260C00FFF74EFF401B6428F5D903205FE1514BC7
:10261C005B6813F4803FA5D14E4B1B6813F0020F7F
:10262C0003D02369012B40F04F814A4A136823F0F1
:10263C00F803616943EAC1031360236813F0080FC0
:10264C0033D0A369002B5CD0434B0122C3F8802408
:10265C00FFF726FF05463F4B5B6A13F0020F21D1B3
:10266C00FFF71EFF401B0228F5D903202FE1394A42
:10267C00136823F0F803616943EAC1031360DCE7D4
:10268C00354B00221A60FFF70BFF0546314B1B68D8
:10269C0013F0020FD1D0FFF703FF401B0228F5D92E
:1026AC00032014E10120FFF701FF236813F0040F4E
:1026BC0000F09680274BDB6913F0805F34D1254BFB
:1026CC00DA6942F08052DA61DB6903F080530193DE
:1026DC00019B0125214B1B6813F4807F26D0E368F6
:1026EC00012B3DD0002B53D103F1804303F5043370
:1026FC001A6A22F001021A621A6A22F004021A62A1
:10270C0033E0154B0022C3F88024FFF7C9FE0546C1
:10271C00104B5B6A13F0020FC7D0FFF7C1FE401BD2
:10272C000228F5D90320D2E00025D3E70B4A136821
:10273C0043F480731360FFF7B3FE0646074B1B6828
:10274C0013F4807FCBD1FFF7ABFE801B6428F5D947
:10275C000320BCE000100240000042420070004028
:10276C005F4A136A43F001031362E36833B3FFF764
:10277C0097FE06465A4B1B6A13F0020F2FD1FFF738
:10278C008FFE801B41F288339842F3D903209EE0E0
:10279C00052B09D0524B1A6A22F001021A621A6AEE
:1027AC0022F004021A62E0E74D4B1A6A42F004026E
:1027BC001A621A6A42F001021A62D6E7FFF770FE3B
:1027CC000646474B1B6A13F0020F08D0FFF768FE52
:1027DC00801B41F288339842F3D9032077E0E5B9A6
:1027EC00E369002B72D03E4A526802F00C02082AB0
:1027FC0056D0022B17D03B4B00221A66FFF750FE27
:10280C000446374B1B6813F0007F47D0FFF748FE98
:10281C00001B0228F5D9032059E0314AD36923F073
:10282C008053D361DCE72F4B00221A66FFF738FE8A
:10283C0005462B4B1B6813F0007F06D0FFF730FECC
:10284C00401B0228F5D9032041E0236AB3F5803FF1
:10285C001AD023494B6823F47413226A606A02432A
:10286C0013434B601F4B01221A66FFF719FE0446F7
:10287C001B4B1B6813F0007F0ED1FFF711FE001BE2
:10288C000228F5D9032022E0154A536823F40033BB
:10289C00A1680B435360DCE7002018E0002016E031
:1028AC00012B16D00E4B5B6803F48031226A9142E7
:1028BC0011D103F47013626A93420ED1002006E02A
:1028CC0001207047012002E0012000E0002002B04E
:1028DC0070BD0120FBE70120F9E70120F7E700BFFD
:1028EC0000100240000042420F4B5B6803F00C02E8
:1028FC00082A01D00D487047C3F383420C49885C09
:10290C0013F4803F0BD0084B5B68C3F34043094A78
:10291C00D35C064A02FB00F0B0FBF3F07047064BA9
:10292C0003FB00F0704700BF0010024000127A0059
:10293C000C3D00081C3D000800093D00002800F07B
:10294C00A08070B50D460446524B1B6803F007037C
:10295C008B420BD24F4A136823F007030B431360CF
:10296C00136803F007038B4240F08D80236813F04B
:10297C00020F17D013F0040F04D0474A536843F4E6
:10298C00E0635360236813F0080F04D0424A536885
:10299C0043F460535360404A536823F0F003A1683A
:1029AC000B435360236813F0010F31D06368012B84
:1029BC0020D0022B25D0384A126812F0020F64D0B6
:1029CC0035494A6822F0030213434B60FFF768FD58
:1029DC000646314B5B6803F00C036268B3EB820F65
:1029EC0016D0FFF75DFD801B41F288339842F0D979
:1029FC00032045E0284A126812F4003FE0D1012080
:102A0C003EE0254A126812F0007FD9D1012037E050
:102A1C00204B1B6803F00703AB420AD91D4A13680D
:102A2C0023F007032B431360136803F00703AB4237
:102A3C002DD1236813F0040F06D0174A536823F4E2
:102A4C00E063E1680B435360236813F0080F07D071
:102A5C00114A536823F46053216943EAC10353605C
:102A6C00FFF742FF0C4B5B68C3F303130B4AD35CB9
:102A7C00D8400B4B18600B4B1868FFF7CDFC0020AF
:102A8C0070BD012070470120FAE70120F8E7012012
:102A9C00F6E700BF0020024000100240203D000875
:102AAC00700000206C000020014B1868704700BFBC
:102ABC007000002008B5FFF7F7FF044B5B68C3F309
:102ACC000223034AD35CD84008BD00BF001002406B
:102ADC00303D000808B5FFF7E7FF044B5B68C3F314
:102AEC00C223034AD35CD84008BD00BF001002408B
:102AFC00303D000870B582B00024A446A6E0804D9D
:102B0C00AA4210D007D97F4DAA420CD005F58035CA
:102B1C00AA4208D013E0A5F58015AA4203D005F50A
:102B2C007025AA4207D18A68002A58D0012A51D0B0
:102B3C004361082403E0A5F58015AA42F3D0BEF149
:102B4C00FF0F4ED80646BEF1FF0F4CD84FEA8C0251
:102B5C0033680F25954023EA050304FA02F2134368
:102B6C0033604B6813F0805F6ED0674B9A6942F00C
:102B7C0001029A619B6903F001030193019B4FEAE7
:102B8C009C02951C614B53F825600CF003039D00CF
:102B9C000F23AB4026EA03065D4B984229D003F580
:102BAC008063984200F08E8003F58063984200F0B9
:102BBC008B8003F58063984219D004231AE0CC680B
:102BCC00BDE7CC680434BAE7CC680834B7E7CC6806
:102BDC000C34B4E703610824B1E70024AFE7042404
:102BEC00ADE7061DAFE7ACF108029200B0E7032396
:102BFC0000E00023AB4033430232444D45F8223011
:102C0C004B6813F4801F61D0424A936843EA0E0369
:102C1C0093604B6813F4001F5ED03E4AD36843EABE
:102C2C000E03D3604B6813F4003F5BD0394A5368F2
:102C3C0043EA0E0353604B6813F4803F58D0354A77
:102C4C00136843EA0E0313600CF1010C0A6832FAA4
:102C5C000CF353D0012303FA0CF302EA030E33EA0C
:102C6C000202F1D14A68122A3FF649AF122A3FF606
:102C7C0066AF01A555F822F0332B0008CB2B0008CA
:102C8C00D52B0008E72B00084B2B00084B2B00081A
:102C9C004B2B00084B2B00084B2B00084B2B000830
:102CAC004B2B00084B2B00084B2B00084B2B000820
:102CBC004B2B00084B2B00084B2B0008CF2B00088C
:102CCC00DB2B0008012395E7022393E7114A936855
:102CDC0023EA0E0393609CE70E4AD36823EA0E03A3
:102CEC00D3609FE70B4A536823EA0E035360A2E7B5
:102CFC00084A136823EA0E031360A5E702B070BDFF
:102D0C0000002210000031100010024000000140B1
:102D1C0000080140000401400AB101617047090438
:102D2C0001617047C36801EA030221EA030141EA29
:102D3C0002410161704730B40124056CAC40C56B95
:102D4C006C60046863604368102B05D0036899605D
:102D5C000368DA6030BC704703689A600368D96016
:102D6C00F8E7000060B310B402460168154B0B4441
:102D7C001548A0FB03031B099B001364134BD3637F
:102D8C00022382F82130086820F47F5020F03000B4
:102D9C00536894682343D4682343146923435469C8
:102DAC00234394692343D469234303430B600020DA
:102DBC009063012382F8213082F8200010BC704708
:102DCC0001207047F8FFFDBFCDCCCCCC00000240F9
:102DDC0038B5044690F82000012832D0012084F840
:102DEC00200094F82100C0B2012804D0002384F8FC
:102DFC002030022038BD022084F821000020A0637E
:102E0C002568286820F0010028602046FFF793FF12
:102E1C00E36A5BB12268136843F00E031360226807
:102E2C00136843F0010313600020E3E72268136882
:102E3C0023F0040313602268136843F00A03136041
:102E4C00EDE70220D6E790F82130DBB2022B06D05A
:102E5C0004238363002380F820300120704702682C
:102E6C00136823F00E0313600268136823F0010348
:102E7C001360036CC16B012202FA03F34B6080F800
:102E8C002120002380F820301846704708B590F8B0
:102E9C002130DBB2022B03D004238363012008BD55
:102EAC000268136823F00E0313600268136823F0A2
:102EBC00010313600368194A934214D014329342ED
:102ECC001FD0143293421ED0143293421ED01432AF
:102EDC0093421ED01432934202D04FF0807203E022
:102EEC004FF4801200E001220D4B5A60012380F850
:102EFC002130002380F82030436B6BB198470020C1
:102F0C00CDE71022F0E74FF48072EDE74FF48052DA
:102F1C00EAE74FF48032E7E70020C0E70800024000
:102F2C000000024038B5C36B1A6804682568016C50
:102F3C0004238B40134235D015F0040F32D0236894
:102F4C0013F0200F03D1236823F0040323600368DC
:102F5C00434A934214D01432934218D01432934201
:102F6C0017D01432934217D01432934217D0143224
:102F7C00934202D04FF0806203E04FF4800200E0F5
:102F8C000422384B5A60C36A03B1984738BD4022BB
:102F9C00F7E74FF48062F4E74FF48042F1E74FF427
:102FAC008022EEE702238B4013423CD015F0020F37
:102FBC0039D0236813F0200F06D1236823F00A03BD
:102FCC002360012380F821300368254A934214D0F2
:102FDC00143293421CD0143293421BD014329342BD
:102FEC001BD0143293421BD01432934202D04FF0B8
:102FFC00007203E04FF4001200E00222194B5A60F9
:10300C00002380F82030836A002BBFD09847BDE79F
:10301C002022F3E74FF40072F0E74FF40052EDE793
:10302C004FF40032EAE7082303FA01F11142ADD064
:10303C0015F0080FAAD0236823F00E032360026C4E
:10304C00C16B012303FA02F24A60836380F82130DA
:10305C00002380F82030036B002B97D0984795E71E
:10306C000800024000000240074AD36823F4E063E2
:10307C001B041B0C000200F4E060034343F0BF632D
:10308C0043F40033D360704700ED00E000B5194BFA
:10309C00DB68C3F30223C3F1070CBCF1040F28BF98
:1030AC004FF0040C03F1040EBEF1060F18D9033BCC
:1030BC004FF0FF3E0EFA0CFC21EA0C0199400EFA7F
:1030CC0003F322EA0303194300280BDB0901C9B2FD
:1030DC0000F1604000F5614080F800135DF804FBDE
:1030EC000023E5E700F00F000901C9B2024B1954A7
:1030FC00F4E700BF00ED00E014ED00E0002807DB72
:10310C0000F01F02400901239340024A42F820308C
:10311C00704700BF00E100E00138B0F1807F0BD2B6
:10312C004FF0E0235861054AF02182F8231000206B
:10313C00986107221A6170470120704700ED00E08A
:10314C007047000000B58DB02422002103A8FDF7C4
:10315C0053F80023019302931248134A0260436010
:10316C0083604FF6FF72C260036143618361032386
:10317C00039301230593099303A9FEF733FC50B97C
:10318C0000230193029301A90648FEF7FDFC28B920
:10319C000DB05DF804FBFEF7EDF9F1E7FEF7EAF987
:1031AC00F6E700BF58030020002C014000B58DB09D
:1031BC002422002103A8FDF71FF80023019302939A
:1031CC0012484FF080420260436083604FF6FF72FA
:1031DC00C260036183610323039301230593099365
:1031EC0003A9FEF7FFFB50B900230193029301A939
:1031FC000648FEF7C9FC28B90DB05DF804FBFEF7D4
:10320C00B9F9F1E7FEF7B6F9F6E700BFA003002025
:10321C0000B58DB02422002103A8FCF7EDFF00239C
:10322C00019302931148124A0260436083604FF687
:10323C00FF72C2600361836103230393012305932F
:10324C00099303A9FEF7CEFB50B900230193029317
:10325C0001A90648FEF798FC28B90DB05DF804FBEF
:10326C00FEF788F9F1E7FEF785F9F6E7E8030020A9
:10327C000004004000B58BB000230693079308931D
:10328C00099303682D4A934208D0B3F1804F20D0A4
:10329C002B4A934238D00BB05DF804FB294B9A694A
:1032AC0042F400629A619A6902F400620092009AF8
:1032BC009A6942F004029A619B6903F0040301933A
:1032CC00019B4FF44073069306A91F48FFF712FCAD
:1032DC00E1E703F50433DA6942F00102DA61DA69F5
:1032EC0002F001020292029A9A6942F004029A6177
:1032FC009B6903F004030393039B0323069306A922
:10330C001148FFF7F7FBC6E70E4BDA6942F00202F1
:10331C00DA61DA6902F002020492049A9A6942F0C4
:10332C0004029A619B6903F004030593059BC02377
:10333C00069306A90448FFF7DDFBACE7002C01401F
:10334C00000400400010024000080140024600202A
:10335C000AE000BF4FF060431B68002BF9D04FF020
:10336C00604383F800C00130884210DA12F800C0C4
:10337C004FF06043D3F8803E13F0010FF3D04FF0C1
:10338C006043D3F8003E13F0010FE3D1EBE7704735
:10339C0008B508461146FFF7D9FF08BD03681B683E
:1033AC00586AB0F5004F01D9A0F580307047000085
:1033BC0070B50446FFF7F2FF0546FFF771F8A668F3
:1033CC00861B2846FDF776FE0849FDF7C7FE054625
:1033DC00A08806FB00F0FDF76DFE01462846FDF7C0
:1033EC0071FF0349FDF7BAFE70BD00BFDB0FC9408A
:1033FC0000007A4408B53C210068FEF75EFB08BD6E
:10340C0010B5044603681B6800225A62FFF748F89F
:10341C00A06010BD8C4600210DE05200D2B2013BE1
:10342C00DBB233B112F0800FF7D08CEA4202D2B289
:10343C00F5E742540131FF2902DCCAB20823F0E758
:10344C00704700B586460023184608E011F803C003
:10345C008CEA00001EF90000C0B201339BB293420B
:10346C00F4D35DF804FB7047012800D070474FF689
:10347C00FF739942FAD110B5104B114A5A624FF4AE
:10348C007A6119850022DA620E48186399869A636C
:10349C000D48D863A3F840105A6400211966596688
:1034AC00996683F89220094C07212046FFF7B2FF5A
:1034BC00074A08492046FCF767FE10BD3C05002072
:1034CC00E803002058030020A00300203C04002047
:1034DC00000000207334000810B503685B68FEF729
:1034EC00DFFF394B1B68C01A142813D8374B1B78D5
:1034FC007BB3374B1B78A52B16D0FEF7D1FF354B82
:10350C001B68C01A14281AD8012231493248FEF718
:10351C006FFF10BD4FF480513048FFF703FCFEF7EE
:10352C00BFFF294B1860E1E70023284A1370284994
:10353C0001F8013B05222848FEF75AFFE9E74FF452
:10354C0000512648FFF7EEFBFEF7AAFF214B18604F
:10355C00DAE701221D4B1A701D4C21461E48FEF75E
:10356C0047FF0422611C1E48FFF76BFF63799842EA
:10357C0010D0FEF795FF174B1B68C01A1428C8D93A
:10358C004FF400511548FFF7CDFBFEF789FF114BA7
:10359C001860BEE7D4F80120124B1A60FEF780FFCA
:1035AC00114B1860FEF77CFF104B1B68C01A1428D7
:1035BC00AFD94FF400510E48FFF7B4FBFEF770FF84
:1035CC000A4B1860A5E700BF3404002074000020EB
:1035DC00DC050020E4050020C4020020000C0140A2
:1035EC003C040020D4050020D0050020300400202D
:1035FC000010014010B5044603685B68FEF750FFED
:10360C000E4B1B68C01A142805D822680C4B1B687B
:10361C009A420AD010BD4FF400510A48FFF782FBC2
:10362C00FEF73EFF054B1860EFE70122064B1A70C0
:10363C0006490348FEF7DCFEECE700BFE40500207A
:10364C00C4020020000C014074000020DC050020A6
:10365C0008B5054B002283F892204FF480410348B3
:10366C00FFF760FB08BD00BF3C050020000C0140CB
:10367C0010B504462430FFF7BDFE04F13000FFF70F
:10368C00B9FE04F13C00FFF7B5FE012202490348E4
:10369C00FEF7AEFE10BD00BFDC050020C40200200A
:1036AC00F8B5044600F124073846FFF777FE404290
:1036BC00A06404F130063046FFF770FE4042E0642F
:1036CC0004F13C052846FFF769FE2065A16C134AFE
:1036DC0013680B441360E16C114A13680B441360BC
:1036EC00104A1368184410603846FFF761FE00F169
:1036FC00004060653046FFF75BFE00F10040A065BE
:10370C002846FFF755FEE0653846FFF779FE304650
:10371C00FFF776FE2846FFF773FEF8BDE80500209C
:10372C00F0050020EC0500202DE9F04F83B0044695
:10373C00806CFDF7BFFCA049FDF710FD9F49FDF71C
:10374C00C1FD0090E06CFDF7B5FC9B49FDF706FD53
:10375C009A49FDF7B7FD8146206DFDF7ABFC964904
:10376C00FDF7FCFC9549FDF7ADFD80469449606D75
:10377C00FDF7F4FC4FF07C51FDF7F0FC0190904903
:10378C00A06DFDF7EBFC4FF07C51FDF7E7FC074615
:10379C008B49E06DFDF7E2FC4FF07C51FDF7DEFC50
:1037AC00064641464846FDF7CFFB8649FDF78AFDA4
:1037BC000546FEF775FE844B1B68C01A63284ED86D
:1037CC00824BD3F800A0824BD3F800B08149584605
:1037DC00FDF780FE98B180495046FDF75DFE70B153
:1037EC0059467E48FDF7B0FB83467C495046FDF7B1
:1037FC00ADFB01465846FDF7A9FB83461EE0764912
:10380C005846FDF749FEA0B172495046FDF762FEDD
:10381C0078B172495846FDF799FB00F1004B5146BF
:10382C006E48FDF791FB01465846FDF78DFB83462C
:10383C0004E059465046FDF787FB83466849284605
:10384C00FDF78CFC054667495846FDF787FC014699
:10385C002846FDF77BFB05465D4BC3F800A062498B
:10386C004846FDF77BFC814660494046FDF776FCF7
:10387C0001464846FDF76AFB5249FDF723FD824697
:10388C005B492846FDF76AFC0099FDF75FFB804613
:10389C00D4F868904FF07C512846FDF75FFC014648
:1038AC004846FDF753FB83464C49FDF713FE0028B1
:1038BC0076D050495846FDF747FB8346584600F0F2
:1038CC009BF98146584600F03DF900904946504618
:1038DC00FDF744FC834600994046FDF73FFC01464A
:1038EC005846FDF731FB216EFDF730FB8346206611
:1038FC0000995046FDF732FC824649464046FDF79A
:10390C002DFC01465046FDF721FB616EFDF71EFBB9
:10391C0080466066A16E2846FDF718FB0546A0663A
:10392C002E49FDF7D7FD00286ED032492846FDF709
:10393C000BFB0546A56631463846FDF705FB2149CC
:10394C00FDF7C0FC814628493846FDF707FC0746C1
:10395C0026493046FDF702FC01463846FDF7F6FADB
:10396C001849FDF7AFFC064621494846FDF7F6FB22
:10397C000199FDF7EBFAC4F800B0C4F80480A56017
:10398C00E6602061C4F814901B4B1B68A3611B4BB1
:10399C001B68E3611A4B1B68236203B0BDE8F08F10
:1039AC0018495846FDF778FD002887D0114958462C
:1039BC00FDF7CCFA834681E7C0A7383E00007A4574
:1039CC00431C6B3DD7A3F03ED0050020D40500204E
:1039DC00D8050020DB0FC93FDB0FC9BFDB0F494007
:1039EC00CDCCCC3D6666663F6666663E48E17A3E67
:1039FC009318843EDB0FC940E8050020F005002039
:103A0C00EC050020DB0F49C005492846FDF744FDB5
:103A1C0000288FD003492846FDF798FA054689E718
:103A2C00DB0F49C0DB0FC94070B52A48FFF720FEF9
:103A3C00002429E0AC46BCE80F00CEF80000CEF81C
:103A4C000410CEF80820CEF80C3065460EF1100E9E
:103A5C00B445EFD1DCF80000CEF800001D4D242257
:103A6C0005F16D011C48FFF7ECFC85F8910026224E
:103A7C0005F16C011948FEF7A5F9012385F8923080
:103A8C00FEF70EFD164B1860FEF70AFD031B042B08
:103A9C00FAD91448FCF76AFCFEF702FD04460D4DFA
:103AAC002846FFF7FDFD2846FFF73EFEFEF7F8FC23
:103ABC000B4B1B68C01A3128E6D995F89230002BB5
:103ACC00E2D12E46A52285F86C2005F16D0E20362C
:103ADC00B0E700BF3C0500203C0400200C03002094
:103AEC0038040020383D000808B54FF6FF7101205E
:103AFC00FFF7BAFC08BD0000FFF722FB0B480C498E
:103B0C000C4A002302E0D458C4500433C4188C422D
:103B1C00F9D3094A094C002301E013600432A24294
:103B2C00FBD3FCF745FBFDF759FD70470000002067
:103B3C00780000205045000878000020F405002093
:103B4C00FEE70000F8B500210446FDF7A5FC0028AF
:103B5C003BD126492046FDF701FB0646FDF7C4FC88
:103B6C00002105462046FDF797FC00283AD128464F
:103B7C00FDF7A0FA01463046FDF7E6F94FF0884113
:103B8C00FDF7ECFA0546FDF7D5FCC0F3080420461A
:103B9C00FDF78CFA01462846FDF7D6F9144E05467A
:103BAC0001464FF07E50FDF7CFF956F82410FDF783
:103BBC00D5FA0134074656F824102846FDF7CEFAFC
:103BCC0001463846FDF7C2F9F8BD0A492046FDF713
:103BDC0077FC48B905492046FDF7C0FA0646FDF7C3
:103BEC0083FC0546013DC2E72046F8BD83F9223E21
:103BFC00403D0008CD024CB4F8B51F49FDF7AEFAB4
:103C0C004FF07A51FDF7A2F90446FDF76DFC002147
:103C1C0005462046FDF740FC00B1013D2846FDF766
:103C2C0049FA01462046FDF78FF94FF08841FDF720
:103C3C0095FA0546FDF77EFCC0F308042046FDF717
:103C4C0035FA01462846FDF77FF90C4E054601462C
:103C5C004FF07E50FDF778F956F82410FDF77EFAF8
:103C6C000134074656F824102846FDF777FA01462A
:103C7C003846FDF76BF9F8BD83F9223E403D00084C
:103C8C00F8B500BFF8BC08BC9E467047F8B500BF3D
:083C9C00F8BC08BC9E4670470D
:103CA4000800002094000020000000000000000034
:103CB4000000000000000000000000000000000000
:103CC40000000000000000000000000000000000F0
:103CD40000000000000000000000000000000000E0
:103CE40000000000000000000000000000000000D0
:103CF40000000000000000000000000000000000C0
:103D04000000000000000000020304050607080983
:103D14000A0B0C0D0E0F1010010200000000000031
:103D24000000000001020304060708090000000067
:103D3400010203044F4B20626F7900000000000071
:103D4400920E493CB10AC93C2BC3163D2EFB483D9B
:103D5400752B7B3D04A9963D80B6AF3D36BDC83D6D
:103D64002FBCE13D73B2FA3D87CF093E8340163E36
:103D7400B5AB223EA2102F3ECF6E3B3EC2C5473E9E
:103D84000115543E135C603E7F9A6C3ECCCF783E66
:103D9400C07D823E938E883E229A8E3E32A0943E0F
:103DA40086A09A3EE59AA03E128FA63ED47CAC3EF5
:103DB400EF63B23E2A44B83E491DBE3E15EFC33EF2
:103DC40053B9C93ECA7BCF3E4136D53E80E8DA3E80
:103DD4004F92E03E7533E63EBBCBEB3EEA5AF13EF2
:103DE400CBE0F63E275DFC3EE4E7003F3D9C033F0D
:103DF400824B063F9BF5083F6B9A0B3FDA390E3F27
:103E0400CDD3103F2A68133FD9F6153FC07F183F22
:103E1400C6021B3FD17F1D3FCBF61F3F9967223F50
:103E240025D2243F5636273F1594293F4AEB2B3F92
:103E3400DE3B2E3FBB85303FC9C8323FF304353FDC
:103E4400233A373F4268393F3B8F3B3FF9AE3D3F12
:103E540067C73F3F70D8413F01E2433F03E4453F1A
:103E640065DE473F12D1493FF8BB4B3F029F4D3FB0
:103E7400207A4F3F3D4D513F4918533F31DB543F6A
:103E8400E595563F5348583F6AF2593F1A945B3FB1
:103E9400532D5D3F05BE5E3F2146603F97C5613FA0
:103EA4005A3C633F59AA643F880F663FD86B673F0B
:103EB4003CBF683FA7096A3F0C4B6B3F5E836C3F76
:103EC40093B26D3F9ED86E3F73F56F3F0809713F03
:103ED4005213723F4714733FDD0B743F0BFA743F68
:103EE400C6DE753F07BA763FC58B773FF853783FF8
:103EF4009812793F9DC7793F02737A3FBE147B3F86
:103F0400CDAC7B3F283B7C3FC9BF7C3FAC3A7D3F77
:103F1400CCAB7D3F23137E3FB0707E3F6DC47E3FAC
:103F2400580E7F3F6D4E7F3FAB847F3F0FB17F3F85
:103F340097D37F3F43EC7F3F11FB7F3F0000803FDF
:103F440011FB7F3F43EC7F3F97D37F3F0FB17F3F10
:103F5400AB847F3F6D4E7F3F580E7F3F6DC47E3FE5
:103F6400B0707E3F23137E3FCCAB7D3FAC3A7D3FA8
:103F7400C9BF7C3F283B7C3FCDAC7B3FBE147B3F1D
:103F840002737A3F9DC7793F9812793FF853783F7F
:103F9400C58B773F07BA763FC6DE753F0BFA743F91
:103FA400DD0B743F4714733F5213723F0809713F8E
:103FB40073F56F3F9ED86E3F93B26D3F5E836C3F47
:103FC4000C4B6B3FA7096A3F3CBF683FD86B673F08
:103FD400880F663F59AA643F5A3C633F97C5613FC7
:103FE4002146603F05BE5E3F532D5D3F1A945B3F03
:103FF4006AF2593F5348583FE595563F31DB543FE9
:104004004918533F3D4D513F207A4F3F029F4D3F4A
:10401400F8BB4B3F12D1493F65DE473F03E4453FC0
:1040240001E2433F70D8413F67C73F3FF9AE3D3F90
:104034003B8F3B3F4268393F233A373FF304353FD8
:10404400C9C8323FBB85303FDE3B2E3F4AEB2B3F96
:104054001594293F5636273F25D2243F9967223F9E
:10406400CBF61F3FD17F1D3FC6021B3FC07F183FC9
:10407400D9F6153F2A68133FCDD3103FDA390E3FE6
:104084006B9A0B3F9BF5083F824B063F3D9C033FD9
:10409400E4E7003F275DFC3ECBE0F63EEA5AF13E02
:1040A400BBCBEB3E7533E63E4F92E03E80E8DA3E12
:1040B4004136D53ECA7BCF3E53B9C93E15EFC33E08
:1040C400491DBE3E2A44B83EEF63B23ED47CAC3EAA
:1040D400128FA63EE59AA03E86A09A3E32A0943E58
:1040E400229A8E3E938E883EC07D823ECCCF783E0F
:1040F4007F9A6C3E135C603E0115543EC2C5473E38
:10410400CF6E3B3EA2102F3EB5AB223E8340163EFF
:1041140087CF093E73B2FA3D2FBCE13D36BDC83DA1
:1041240080B6AF3D04A9963D752B7B3D2EFB483DE3
:104134002BC3163DB10AC93C920E493C0000000055
:10414400920E49BCB10AC9BC2BC316BD2EFB48BD97
:10415400752B7BBD04A996BD80B6AFBD36BDC8BD69
:104164002FBCE1BD73B2FABD87CF09BE834016BE32
:10417400B5AB22BEA2102FBECF6E3BBEC2C547BE9A
:10418400011554BE135C60BE7F9A6CBECCCF78BE62
:10419400C07D82BE938E88BE229A8EBE32A094BE0B
:1041A40086A09ABEE59AA0BE128FA6BED47CACBEF1
:1041B400EF63B2BE2A44B8BE491DBEBE15EFC3BEEE
:1041C40053B9C9BECA7BCFBE4136D5BE80E8DABE7C
:1041D4004F92E0BE7533E6BEBBCBEBBEEA5AF1BEEE
:1041E400CBE0F6BE275DFCBEE4E700BF3D9C03BF09
:1041F400824B06BF9BF508BF6B9A0BBFDA390EBF23
:10420400CDD310BF2A6813BFD9F615BFC07F18BF1E
:10421400C6021BBFD17F1DBFCBF61FBF996722BF4C
:1042240025D224BF563627BF159429BF4AEB2BBF8E
:10423400DE3B2EBFBB8530BFC9C832BFF30435BFD8
:10424400233A37BF426839BF3B8F3BBFF9AE3DBF0E
:1042540067C73FBF70D841BF01E243BF03E445BF16
:1042640065DE47BF12D149BFF8BB4BBF029F4DBFAC
:10427400207A4FBF3D4D51BF491853BF31DB54BF66
:10428400E59556BF534858BF6AF259BF1A945BBFAD
:10429400532D5DBF05BE5EBF214660BF97C561BF9C
:1042A4005A3C63BF59AA64BF880F66BFD86B67BF07
:1042B4003CBF68BFA7096ABF0C4B6BBF5E836CBF72
:1042C40093B26DBF9ED86EBF73F56FBF080971BFFF
:1042D400521372BF471473BFDD0B74BF0BFA74BF64
:1042E400C6DE75BF07BA76BFC58B77BFF85378BFF4
:1042F400981279BF9DC779BF02737ABFBE147BBF82
:10430400CDAC7BBF283B7CBFC9BF7CBFAC3A7DBF73
:10431400CCAB7DBF23137EBFB0707EBF6DC47EBFA8
:10432400580E7FBF6D4E7FBFAB847FBF0FB17FBF81
:1043340097D37FBF43EC7FBF11FB7FBF000080BFDB
:1043440011FB7FBF43EC7FBF97D37FBF0FB17FBF0C
:10435400AB847FBF6D4E7FBF580E7FBF6DC47EBFE1
:10436400B0707EBF23137EBFCCAB7DBFAC3A7DBFA4
:10437400C9BF7CBF283B7CBFCDAC7BBFBE147BBF19
:1043840002737ABF9DC779BF981279BFF85378BF7B
:10439400C58B77BF07BA76BFC6DE75BF0BFA74BF8D
:1043A400DD0B74BF471473BF521372BF080971BF8A
:1043B40073F56FBF9ED86EBF93B26DBF5E836CBF43
:1043C4000C4B6BBFA7096ABF3CBF68BFD86B67BF04
:1043D400880F66BF59AA64BF5A3C63BF97C561BFC3
:1043E400214660BF05BE5EBF532D5DBF1A945BBFFF
:1043F4006AF259BF534858BFE59556BF31DB54BFE5
:10440400491853BF3D4D51BF207A4FBF029F4DBF46
:10441400F8BB4BBF12D149BF65DE47BF03E445BFBC
:1044240001E243BF70D841BF67C73FBFF9AE3DBF8C
:104434003B8F3BBF426839BF233A37BFF30435BFD4
:10444400C9C832BFBB8530BFDE3B2EBF4AEB2BBF92
:10445400159429BF563627BF25D224BF996722BF9A
:10446400CBF61FBFD17F1DBFC6021BBFC07F18BFC5
:10447400D9F615BF2A6813BFCDD310BFDA390EBFE2
:104484006B9A0BBF9BF508BF824B06BF3D9C03BFD5
:10449400E4E700BF275DFCBECBE0F6BEEA5AF1BEFE
:1044A400BBCBEBBE7533E6BE4F92E0BE80E8DABE0E
:1044B4004136D5BECA7BCFBE53B9C9BE15EFC3BE04
:1044C400491DBEBE2A44B8BEEF63B2BED47CACBEA6
:1044D400128FA6BEE59AA0BE86A09ABE32A094BE54
:1044E400229A8EBE938E88BEC07D82BECCCF78BE0B
:1044F4007F9A6CBE135C60BE011554BEC2C547BE34
:10450400CF6E3BBEA2102FBEB5AB22BE834016BEFB
:1045140087CF09BE73B2FABD2FBCE1BD36BDC8BD9D
:1045240080B6AFBD04A996BD752B7BBD2EFB48BDDF
:104534002BC316BDB10AC9BC920E49BC0000008051
:0845440075010008F53A0008BA
:04454C004D01000815
:10455000000000000800002000000000EC3C000803
:10456000CC3C0008AC3C000800000000000000004B
:10457000000000000000000000000000000000003B
:10458000000000000000000000000000000000002B
:10459000000000000000000000000000000000001B
:1045A000000000000000000000000000000000000B
:1045B00000000000000000000100000010000000EA
:0845C0000024F40001000000DA
:0400000508003B05AF
:00000001FF
